:020000040800F2
:100000000000012009080008B9070008BD07000822
:10001000C1070008C5070008C90700080000000064
:10002000000000000000000000000000CD070008F4
:10003000D107000800000000D5070008D907000814
:10004000590800085908000859080008590800080C
:1000500059080008590800085908000859080008FC
:1000600059080008590800085908000859080008EC
:1000700059080008590800085908000859080008DC
:100080005908000859080008590800080000000035
:1000900000000000000000000000000059080008F7
:1000A00059080008590800085908000859080008AC
:1000B000590800085908000859080008590800089C
:1000C000590800085908000859080008590800088C
:1000D00059080008590800085908000800000000E5
:1000E00059080008590800085908000800000000D5
:1000F0000000000000000000000000005908000897
:1001000000000000590800085908000859080008B4
:1001100000000000000000000000000000000000DF
:10012000590800085908000859080008E90700089C
:100130005908000800000000000000000000000056
:100140000000000000000000000000005908000846
:1001500059080008590800085908000859080008FB
:1001600059080008590800080000000000000000BD
:10017000000000000000000000000000000000007F
:100180000000000059080008000000000000000006
:040190005908000802
:1001980010B5054C237833B9044B13B10448AFF3B9
:1001A80000800123237010BDA4000020000000007F
:1001B8004019000808B5034B1BB103490348AFF3C6
:1001C800008008BD00000000A800002040190008B9
:1001D8002C4A136823F0070343F0020310B5136099
:1001E800136803F00703022BFAD12749274B0A6843
:1001F80022F4404242F400420A601A6842F4803213
:100208001A601A689203FCD51A68214942F4002240
:100218001A6058681F4A01400A435A6059681B4AC5
:1002280021F440315960196841F0807119601368F0
:100238009B01FCD59368154C23F0F00393609368F9
:1002480023F4E05343F480539360936823F46043AA
:100258009360936823F0030343F002039360A36859
:1002680003F00C03082BFAD10B4801F0CDFA0A4829
:1002780001F0ECFAD4F88C3023F08073C4F88C3099
:1002880010BD00BF003C0240007000400038024032
:100298000080BFFF192A400000BD010500000000D2
:1002A8002DE9F04FD04AD14B1168D14C41F400717F
:1002B8002DED048B1160116841F4806111601168A3
:1002C80041F480711160596CC94A41F48041596404
:1002D800596CADF2047D01F4804112911299196CA8
:1002E80041F0805119641B6C03F080531193119BEA
:1002F800D168C04B4FF6FF0001400B43D360D36871
:10030800C3F30223C3F107011A1D042928BF0421DE
:10031800062A88BFDA1E4FF0FF3303FA01F398BFAD
:100328000022DB4393401B01DBB284F82330FFF744
:100338004FFFB14BB14A1B68A2FB03239B09013B4A
:10034800B3F1807F09D24FF0E022F0205361002101
:10035800072384F82300916113610025CDE92F5507
:10036800A24C3195236BA648DFF88082DFF8A8926B
:10037800A44F43F080032363236B03F08003189397
:10038800189B236B43F001032363236B03F00103E2
:100398001993199B1C2383611C220123CDE92C236B
:1003A8002CA902232E9301F02BF8236B43F480032E
:1003B8002363236B03F4800317938D4B179ADB6831
:1003C800C3F30223C3F10702191D042A28BF04221C
:1003D800062988BFDD1E4FF0FF339340DB4303F04F
:1003E8000303AB4088491B01DBB24FF000600DF1FD
:1003F800880B81F83B332822486000212CA801F0A3
:100408004FFA0023CBF80C30D8F844307C4843F43A
:100418008053C8F84430D8F8443003F48053159317
:10042800159BD8F8303043F00103C8F83030D8F8BD
:1004380030309FED5B7B03F001031693169B03237B
:10044800CBF808308DED227B9FED577B59468DED1B
:10045800267B00F0D5FF6D486D4AD0F858C02CF0C7
:10046800606C4CF0C06CC0F858C0D0F858C02CF084
:10047800C00C4CF0400CC0F858C0D0F858C02CF450
:10048800403CC0F858C0D0F858C02CF4907CC0F854
:1004980058C0D0F858C02CF4007CC0F858C0D0F828
:1004A80058C04CF4806CC0F858C0D0F858C02CF430
:1004B800C05C4CF4006CC0F858C0D0F858C02CF49C
:1004C800C04C4CF4005CC0F858C0D0F86CC09FED2C
:1004D800387B2CF0040CC0F86CC08DED2C7B9FEDA4
:1004E800367B9FED378B9FED389B8DED307B9FEDF5
:1004F800387B2CA910468DED347B8DED2E8B8DED40
:10050800329B01F021F8424A5168002421F0100181
:1005180051602CA820222146CDE91D44CDE91F4475
:10052800219401F0BDF9CBE90044CBE90244CBE9C1
:100538000444D8F84020374B42F00202C8F8402063
:10054800D8F8402002F002021392139A40F2E732E0
:100558001DA9ADF874201846D1221F9201F02CF87D
:100568002C4B1A684FF0804A22F080021A60DAF8A1
:1005780018249FED197B42F00802CAF818248DED63
:100588002C7B9FED177B2CAA012118468DED2E7B25
:10059800309401F05DF8DAF818243FE0AFF30080FA
:1005A800A00000000200000001000000050000009B
:1005B800000000000401000000000000000200002C
:1005C8000000000002000000000000000000000021
:1005D800000000000A0000006000000000000000A9
:1005E8000000000069000000003C024000380240A2
:1005F80000ED00E00003FA0500000020D34D621072
:1006080000000240C000002000E100E00064024059
:10061800003001400004004000FFFF005A4B5B48D7
:1006280022F00402CAF818245A6822F070025A60AC
:100638009A6822F080029A60D8F8303043F00103BB
:10064800C8F83030D8F8303003F001031493594615
:100658004022149B0223CDE922238DED249B8DEDAE
:10066800268B00F0CDFE494BCBF814300322CBE9A2
:10067800022343A1D1E900010822CBF81C30ABF8D2
:100688001020434B0422ABF818201022ABF820208E
:10069800CDE922010FCB0DF1740A8AE80F009AE820
:1006A8000F000DF12C0C8CE80F003A4B08933A4BD5
:1006B80007933A4B06933A4B05934FF0F00E4FF4DD
:1006C800A0734FF00208CDF824B0CDE90344CDF86B
:1006D80028800294CDE900E33248734672462CA97B
:1006E800006800F04DFA2F4B8346186000F048FB75
:1006F8004FF47F01584600F0A3FC2B4B0093FF23D7
:1007080002935846294B0394CDF80490224621467B
:1007180000F00CFE4FF4FA602646254601F084F8F6
:10072800D7F800A04FF00008310241EA0541214303
:10073800584600F085FC3B68A3EB0A0301350236F6
:100748000434B3F57A7FEDB2F6B2E4B208F10108E9
:10075800EAD31AA90A22404601F0ECF80022FF2346
:10076800CDE90232104B009358461146CDF804905B
:100778001AAB00F0DBFD4FF47A7001F055F8CFE7C3
:1007880000300140006402400004004000000240C4
:100798005819000801140008F9130008D5130008B7
:1007A800A1130008C40000200400002090190008CC
:1007B800FEE700BFFEE700BFFEE700BFFEE700BFA1
:1007C800FEE700BF704700BF704700BF704700BF1B
:1007D800024A136801331360704700BFC00000204D
:1007E8000148032100F036B800640240034AD2F8F9
:1007F800883043F47003C2F88830704700ED00E099
:10080800DFF834D00D480E490E4A002302E0D458D0
:10081800C4500433C4188C42F9D30B4A0B4C002340
:1008280001E013600432A242FBD3FFF7DFFF01F0BF
:1008380013F8FFF735FD7047000001200000002085
:10084800A400002098450008A4000020C80000204B
:10085800FEE7000010B53D4B84468E4693E8030042
:1008680082B002AB03E903000EF108026A44BEF14C
:10087800030F12F8082C4FF03F0303FA02F388BF66
:100888000CF10C01324A98BF0CF108010B60136897
:1008980033B19A6A944505D0D3F84C36002BF8D179
:1008A80002B010BDDA6A9645F6D11A6C22B15269C7
:1008B800B3F844101142EFD1264A12F80E005CF842
:1008C800002022F001024CF800205CF80020D2073A
:1008D8000CEB000103D500BF0A68D407FBD4D3F89A
:1008E8003C26D2B95A6A516821F0020151609168D8
:1008F800080604D500BF5A6A91680906FAD493F825
:10090800411621B9196C11B1B3F844308B611368E1
:1009180023F04003136002B010BDB2F5803F0BD244
:100928004A600022C3F83C265CF8003043F001031B
:100938004CF8003002B010BDA2F57F42FF3A4FF6E6
:10094800FF744C60C3F83C26EEE700BF6819000846
:10095800C4000020A0190008F8B5456A2B685B069A
:10096800044623D494F841362BB9236C1BB1B4F850
:10097800442012049A612B6823F42C432B602B68C3
:1009880043F040032B600B78012B4ED0022B6DD027
:1009980093B194F8413623B9236C13B1B4F84420C9
:1009A8009A612B6823F040032B60F8BD00BF636A8F
:1009B8001B685F06D6D5F9E7A28F636AA66B4878ED
:1009C8001204B261D8609A68960707D400BF9A6883
:1009D8009007FBD59A68120603D500BF9A681206DD
:1009E800FBD48E7801F1030E002E45D070460EEB35
:1009F800060C636AA76B10F8012BA18FB961DA6046
:100A08009A68970707D400BF9A689107FBD59A6838
:100A1800120603D500BF9A681206FBD46045E8D1D8
:100A28000EEB06010B78012BB0D14E7801F1020EC6
:100A380016B370460EEB060C636AA76B10F8012B11
:100A4800A18FB961DA609A68970707D400BF9A68DE
:100A58009107FBD59A68120603D500BF9A6812065B
:100A6800FBD46045E8D10EEB0601DBE748788E1C25
:100A780000F0DAFE314686E7714684E770B5044631
:100A88004089A589A66901442A4488B292B21D46C4
:100A9800114613460246B04701462046FFF75CFF61
:100AA800364994F84800C5F3C40201EA15216B09D8
:100AB8000A4303F4FC631A43012892B201D152BAE3
:100AC80092B2636A19684E063ED494F8411629B961
:100AD800256C1DB1B4F844100904A96194F84216B4
:100AE80011B9A16BA58F8D611968022821F42C41D9
:100AF800196031D01868D1B240F040001860D96050
:100B08009968890703D400BF99688907FBD5120A39
:100B1800DA609A68920707D400BF9A689607FBD5EF
:100B28009A68100603D500BF9A681006FBD494F89B
:100B3800412622B9226C12B1B4F8441091611A68A6
:100B480022F040021A6070BD00BF616A09684D0654
:100B5800FAD494F84800B8E7196841F400611960BC
:100B6800196841F040011960DA609A689007DBD48F
:100B780000BF9A689507FBD5D6E700BF00F8FFFFCE
:100B88002DE9F04F83B01F46BDF938300093BDF909
:100B98003C30BDF83090BDF834809DF840B09DF8E9
:100BA80058A001930C46002900F0DC80002105467E
:100BB800164620464FF4CA6200F072FEDDF854C0B3
:100BC80084F848A0BCE80F0004F1240EAEE80F003A
:100BD800BCE80F00AEE80F00DCF80030CEF80030BB
:100BE800A36A002B3CD0E26A6449895C5A5822F017
:100BF80001025A505A58D20703EB010005D500BF2D
:100C08000268D207FBD494F848A0BAF1010F0BD0C0
:100C1800BAF1020F0ED15A5822F4F0425A505A58DB
:100C280042F420525A5005E05A5822F4F0425A50E1
:100C38005A585A505A5822F4802222F00E025A501A
:100C4800426922F0800242615A5842F010025A501A
:100C58005A5822F400725A505A5842F480625A5034
:100C6800B742394638BF3146BE4228BF3E46BBF17F
:100C7800000F46D1009B6381019BA381A680E18080
:100C8800A4F80090A4F802804E4557D8884555D35B
:100C9800119B002B52D0129B002B4FD0119A6261EE
:100CA800129AA261139AE26117AB149A22620FCBCF
:100CB8004FF0000C04F14C0604F1600784F808B00A
:100CC80086E80F0084F840C6C4F84CC6C4F848C685
:100CD800E765002D46D0D5F84C3653B101221D46A4
:100CE800D3F84C36511C1046CAB2002BF7D184F801
:100CF80040062046C4F84856C5F84C4603B0BDE83F
:100D0800F08FBBF1020F23D0BBF1010F2ED0BBF146
:100D1800030F13D1009BA381019BA8EB03035B1A6C
:100D2800638132464B46A180E680A4F80080A4F88F
:100D380002900E46C14611469846A5E74FF4CA628E
:100D48000021204600F0ACFD002003B0BDE8F08F84
:100D5800009BA9EB0302019B921BA8EB0303628192
:100D68005B1A8AE7204603B0BDE8F08F019B6381D8
:100D7800009BA9EB03039B1BA381D2E7A0190008E2
:100D8800036B10B504465BB1828E12049A61192078
:100D980000F04AFD236BA28E9A61192000F044FDF1
:100DA8006369207A984701462046FFF7D5FD94F8F5
:100DB8005A10E26C64290B4628BF642384F85A3021
:100DC8000AB3D16A174801FB03F3216DA0FB0303A3
:100DD800B1F5807F4FEA531322D00FD801291AD0DA
:100DE800102908BF93631368DB0706D4136A1943F5
:100DF8001162136843F00103136010BDB1F5805F01
:100E0800F1D11364EFE7636D002BF6D0B4F85820E6
:100E180019B19A6110BD5363E5E712049A61F9E7C5
:100E2800D363E0E71F85EB51F0B59C4683B061457D
:100E3800BDF82030099E8E46044601D9E6468C4608
:100E48009A4202D911461A460B46A188714540F2CA
:100E58009680E088904240F2928061459CBF01F103
:100E6800FF311FFA81FC98429CBF00F1FF3083B22A
:100E7800A1896089A7699D1A0B4411440CEB0002F3
:100E880070449BB2ACEB0E0C89B292B2013580B2C1
:100E98000CFB0555B84701462046FFF75DFD94F861
:100EA80041362BB9226C1AB1B4F844301B04936153
:100EB80094F8423613B9A36BA28F9A615D4B94F8EC
:100EC800482003EA1623C6F3C4017609194306F439
:100ED800FC663143012A636A89B200F0828018688F
:100EE800A4F8441620F42C401860022A1A6848D145
:100EF80042F400621A601A6842F040021A60A26A5C
:100F0800002A00F08980E66A4B484C4910F806C070
:100F180003C902AF07E9030006F10801032E0DEB30
:100F28000106944416F8080C8CBF0C3208323F2195
:100F3800814011605A6842F002025A600C33CCF8C2
:100F4800083004F24463CCF80C30DCF8003023F4A9
:100F58000073CCF80030DCF80030B5F5803F23F49E
:100F68008063CCF800304DD20023CCF80450C4F88C
:100F78003C36DCF8003043F00103CCF8003003B015
:100F8800F0BD42F040021A60A26A002ABBD1C8B282
:100F9800090AADB1D8609A68960703D400BF9A6869
:100FA8009707FBD5D9609A68920703D400BF9A685F
:100FB8009607FBD5013DEDD19A68120603D500BF0F
:100FC8009A681206FBD494F8412622B9226C12B111
:100FD800B4F8441091611A6822F040021A6003B014
:100FE800F0BD1A6849BA22F42C42A4F844161A60D3
:100FF8001A6842F040021A60A26A89B2002AC6D072
:101008006D0080E7A5F57F454FF6FF73FF3DCCF8EF
:101018000430C4F83C56ACE7002DD1D0D9609A68AA
:10102800920703D400BF9A689707FBD5013DF5D115
:10103800C6E700BF00F8FFFFA019000868190008FC
:1010480010B5C4888388013C82B00022A4B2013B59
:10105800CDE900419BB21146FFF7E6FE02B010BD94
:101068002DE9F04F85B094460191AF4A0F99DDF80C
:10107800388002EA1122C1F3C40A4AEA020A064683
:101088004A0990F848009DF8441002F4FC624AEAC4
:10109800020A0128109A1FFA8AFA03D19AFA9AFAD0
:1010A8001FFA8AFAA04CC2F3C40904EA12245209AE
:1010B80049EA040902F4FC6249EA020201281FFA1B
:1010C80082F903D199FA99F91FFA89F998F808B0C1
:1010D8009B4503D898F809209A4271D24FF0000B2B
:1010E80098F80000471EFF100137042F65DCD8F878
:1010F800042098F8013007FB0BFB03FB0B2BFA00CD
:10110800013A012505FA02F2029200295DD0002B6E
:1011180053D04FF0000A012F014615463046E146EC
:101128005646CDF8388043D0022F00F0CD80032FEB
:1011380000F0CD80042F08BFDBF800A0BB440029D5
:101148003BD00FFA89F2002A29DB019C4FF00008F6
:1011580003E001344145A4B21FDD0AFA08F32B422B
:1011680008F10108F5D083880FFA84FC6345F0DDA7
:10117800B0F806E00F9B9645EBDDBCF1000FE8DB0D
:101188006146CDE90202FFF779FC0E9B197801341C
:101198004145DDE90202A4B2DFDC0E9B5B78013633
:1011A8009E420ADA09F10109012F1FFA89F9BBD118
:1011B8009BF800A0BB440029C3D105B0BDE8F08F5F
:1011C800A3EB0B0B5FFA8BFB8AE7B189019D74894E
:1011D8000CF1FF320A4413446A1E22440244284692
:1011E8006144204492B29BB289B2B569746A80B2F4
:1011F800A84701463046FFF7AFFB326C1AB1B6F884
:1012080044301B049361B36BB28F9A61236823F057
:1012180040032360236823F42C43236096F8483066
:10122800022B61D0236843F04003236098F8013013
:1012380093B3012F98F80030029D4FF0000C27D08F
:10124800022F62D0032F63D0DBF80000BB441BB32E
:10125800002200FA02F1A368294214BF5146494608
:101268009B0703D400BFA3689B07FBD596F84830BB
:10127800022B3ED1E16098F8003001329342E8DC5D
:1012880098F801200CF1010C624505DD012FD7D13A
:101298009BF80000DAE700BFA3689A07FBD5A368AC
:1012A8001B0603D500BFA3681B06FBD42368326C5A
:1012B80023F040032360002A3FF47FAFB6F84430A0
:1012C800936105B0BDE8F08FBBF800A036E79BF846
:1012D80002A09BF801204FEA0A4A4AEA022A9BF830
:1012E80000204AEA020A29E7236843F400632360DE
:1012F80098E7CBB2E360A3689B07C1F30F21B9D489
:1013080000BFA3689B07FBD5B4E7BBF800009DE7C7
:101318009BF802009BF80120000440EA02209BF899
:101328000020104392E700BF00F8FFFF2DE9F04FBF
:101338001F4685B01B780E9E9DF844A0DDE90F89F5
:1013480005460C46934603B396F800C0AA88A44401
:101358009445284609DD7178EC888B441FFA8BFB8D
:101368005944A1424FF000040FDC2146CDE9029A0E
:10137800CDE900685A46FFF773FE96F800C017F8E3
:10138800013F6444A4B2002BE0D1EC81A5F810B071
:1013980005B0BDE8F08F00BF38B1022809D0012898
:1013A8000CD0032814BF0020B020074BD87518466E
:1013B8007047054BD420D87518467047024B6420F7
:1013C800D8751846704700BF1000002010B4074CAD
:1013D80049BA618120715BBA000A110AE070617133
:1013E8002046A271A3815DF8044B7047800000205D
:1013F8000048704794000020004870479C00002077
:101408002DE9F0470C6894FAA4F2B2FA82F234FAA1
:1014180002F37DD04FF0010E4FF0030C4FF00F0A8E
:1014280017E0D0F8008093FAA3F7B7FA87F793FA92
:10143800A3F3B3FA83F37F000CFA07F75B0028EAFB
:10144800070705FA03F33B430360013234FA02F35A
:101458005ED00EFA02F32340F7D04D686F1E012FBD
:101468001FD8D0F8088093FAA3F7B7FA87F793FA4A
:10147800A3F98E68B9FA89F97F000CFA07F74FEAE1
:10148800490928EA070706FA09F947EA09078760B8
:101498004768CE6827EA030706FB03F847EA080708
:1014A8004760D0F80C8093FAA3F7B7FA87F793FA56
:1014B800A3F90E69B9FA89F97F000CFA07F74FEA20
:1014C800490928EA070706FA09F947EA0907022D30
:1014D800C760A6D193FAA3F7B7FA87F7072F1ADCE4
:1014E800D0F8208093FAA3F7B7FA87F793FAA3F90D
:1014F8004E69B9FA89F9BF000AFA07F74FEA89096C
:1015080028EA070706FA09F947EA0907076288E798
:101518000020BDE8F087D0F824901F0A97FAA7F8B2
:10152800B8FA88F897FAA7F74E69B7FA87F74FEA33
:1015380088080AFA08F8BF0029EA080806FA07F72F
:1015480048EA070747626CE70246006810F0400067
:1015580028D1136830B423F47F4CD1E900352B43EC
:101568008D684C692B43CD682B430D692B438D69DE
:1015780023432B43CD692B430D6A2CF0BF0C2B431F
:1015880043EA0C031360536823F0040343EA14434B
:10159800B5F5005F53600BD0D36923F4006330BC0A
:1015A800D3617047D36923F400630120D361704786
:1015B8008B8C1361F0E700BF244A0368904230B473
:1015C80034D0B0F1804F1DD0A2F57C42904219D0A2
:1015D80002F58062904215D002F58062904211D0E7
:1015E80002F59A32904211D002F5806290420DD0F5
:1015F80002F58062904209D08C680A880360C46250
:1016080082620CE04A6823F070031343CD688C684B
:101618000A8823F440732B430360C46282624369DF
:1016280043F00103436130BC002070474C68CA682E
:1016380023F07003234323F44073134303608A6841
:101648000B88C26283620B690363E8E7000001400C
:10165800B1F5807F30B470D026D801294ED010293A
:1016680048D1036A156923F010030362036A4468CA
:10167800816923F0200343EA0513156821F4E64144
:1016880041EA0521556823F0100343EA05135D4D2F
:10169800A84200F09C80D56844600022816185637F
:1016A800036230BC10467047B1F5805F22D1036AEF
:1016B800156923F480530362036A4468C16923F4FB
:1016C800005343EA0533156821F4E64141EA052150
:1016D800556823F4805343EA05334A4DA84200F085
:1016E8008B80D56844600022C1610564036230BC08
:1016F800104670470122104630BC7047036A1569CE
:1017080023F001030362036A4468816923F002033A
:101718002B43156821F073012943556823F0010311
:101728002B43384DA8423ED0D568446000228161E1
:101738004563036230BC10467047036A156923F499
:1017480080730362036A4468C16923F4007343EA3F
:101758000523156821F073012943556823F4807324
:1017680043EA0523274DA84208D0D56844600022E3
:10177800C161C563036230BC10467047556923F4E4
:10178800006343EA8523956924F4805444EA0514E8
:10179800956823F4806343EA8523D56924F40054CB
:1017A80044EA4514E1E7556923F0080343EA850351
:1017B800956924F480742C43956823F0040343EA64
:1017C8008503D56924F4007444EA4504ACE75569F7
:1017D80023F0800343EA8513956924F4806444EA7E
:1017E8008504956823F0400343EA8513D56924F4FA
:1017F800006444EAC5044EE7956924F4804444EA49
:1018080085146EE700000140064BA3FB00304FF043
:10181800E0228309013B0020052153619061116199
:10182800704700BFD34D62104FF0E02382B01B69B0
:101838000193421C019B18BF01304FF0E02213694D
:10184800DB03FCD50138FAD102B07047014B1860B0
:10185800704700BF0000002070B50D4D0D4C641B93
:10186800A4100026A64209D10B4D0C4C00F064F8D8
:10187800641BA4100026A64205D170BD55F8043B90
:1018880098470136EEE755F8043B98470136F2E7EA
:1018980090450008904500089045000894450008C8
:1018A80002440346934200D1704703F8011BF9E74D
:1018B800F0B51F4C8BB005460B466E4604F1200C64
:1018C80020686168374603C7083464453E46F7D147
:1018D80021793971911E2068386022294FF0000162
:1018E80004D919700B4618460BB0F0BD581E844633
:1018F800B5FBF2F702FB175628366E440C4616F86D
:10190800286C0CF8016F2E46B24201F101013D46E8
:10191800EED900225A541919A51AAA42E3DA10F886
:10192800015F0E780670013201F80159F4E700BF33
:1019380068450008FFF7BCBFF8B500BFF8BC08BC95
:101948009E467047F8B500BFF8BC08BC9E46704775
:101958000004004001000000000000000000320008
:101968000006101600061016003A0166002A040048
:10197800000000002B0400000000002E00030000FF
:10198800003A01550300000048656C6C6F2C207705
:101998006F726C6421000000102840587088A0B84D
:1019A800000000000000000000000000000000002F
:1019B800000000000000000000000000000000001F
:1019C800000000000000000000000000000000000F
:1019D80000000000000000000000000000030003F9
:1019E80000030003000300030003000300030003D7
:1019F80000000003800780070003000000000000CB
:101A08000000000000000000000000000000C00C02
:101A1800C00CC00CC00CC00CC00C000000000000C2
:101A280000000000000000000000000000000000AE
:101A3800000000000000000000000000000000009E
:101A48001803180330063006FC7FFC7F600C600C1E
:101A5800C018C018F8FFF8FF8031803100630063B8
:101A6800000000000000000000000000000000006E
:101A7800000000030003B007F00F701C30180018B6
:101A8800E00FF00718001818381CF01FE01B800141
:101A9800800180010000000000000000000000003C
:101AA80000000000003E0077006300630077383EC6
:101AB800E0008003000EF838DC018C018C01DC01A9
:101AC800F800000000000000000000000000000016
:101AD8000000000000000000000FC01F8018001860
:101AE800001C000C000E301FE033E031C030E0383D
:101AF800F01F300F00000000000000000000000090
:101B080000000000000000000003000300030003C1
:101B180000030003000000000000000000000000B7
:101B280000000000000000000000000000000000AD
:101B380000000000000000000000C000C001000319
:101B48000003000600060006000C000C000C000C48
:101B5800000C000C00060006000600030003C0018C
:101B6800C00000000000000000000000000C000E93
:101B780000030003800180018001C000C000C00094
:101B8800C000C000C0008001800180010003000384
:101B9800000E000C00000000000000000000000320
:101BA800000300033033F03FC00F8007C00FE01C74
:101BB80040080000000000000000000000000000D5
:101BC800000000000000000000000000000000000D
:101BD80000000000000000030003000300030003EE
:101BE800F87FF87F000300030003000300030000F0
:101BF80000000000000000000000000000000000DD
:101C080000000000000000000000000000000000CC
:101C18000000000000000000C003C00380030007AC
:101C28000007000E000C000C00000000000000007F
:101C3800000000000000000000000000000000009C
:101C480000000000F83FF83F00000000000000001E
:101C5800000000000000000000000000000000007C
:101C6800000000000000000000000000000000006C
:101C780000000000000000000000000000038007D2
:101C880080070003000000000000000000000000C2
:101C9800000000003000300060006000C000C0009C
:101CA8008001800100030003000300060006000C09
:101CB800000C001800180030003000000000000080
:101CC800000000000000000000008007E01F60180E
:101CD80030303030303030303030303030303030FC
:101CE80030306018E01F800700000000000000008E
:101CF8000000000000000000000000008003801FBA
:101D0800801D8001800180018001800180018001A7
:101D1800800180018001F81FF81F0000000000000A
:101D28000000000000000000000000000000800724
:101D3800E01F60183018300030006000E000C0017B
:101D480080030007000E3018F03FF03F000000004D
:101D5800000000000000000000000000000000007B
:101D6800800FC03FE03060006000E000C003E00387
:101D780070003000300030006038E03F800F000015
:101D8800000000000000000000000000000000004B
:101D98000000C000C001C003C002C006C00CC008DB
:101DA800C018C830F83FF83FC000C000F003F00387
:101DB800000000000000000000000000000000001B
:101DC80000000000E03FE03F003000300030803786
:101DD800E03F603830003000300030006038E03FCD
:101DE800800F00000000000000000000000000005C
:101DF800000000000000F001F00F000E00180018AD
:101E080000308037E03F6038303030303030601894
:101E1800E01F800700000000000000000000000034
:101E28000000000000000000F03FF03F303060008C
:101E38006000C000C0008001800180010003000331
:101E480000060006000C0000000000000000000072
:101E5800000000000000000000008007E01F60187C
:101E6800303030306018C00FC00F6018303030305C
:101E780030306018E01F80070000000000000000FC
:101E88000000000000000000000000008007E01FC4
:101E980060183030303030307018F01FB007300024
:101EA80060006000C001C03F003E0000000000006C
:101EB800000000000000000000000000000000001A
:101EC80000000000000380078007000300000000F6
:101ED80000000000000380078007000300000000E6
:101EE80000000000000000000000000000000000EA
:101EF80000000000000000038007800700030000C6
:101F0800000000000000800780070007000E000E98
:101F1800001C00180018000000000000000000006D
:101F2800000000000000000018007800E0018007B1
:101F3800001E00780078001E8007E0017800180075
:101F48000000000000000000000000000000000089
:101F58000000000000000000000000000000000079
:101F6800F87FF87F00000000F87FF87F000000008D
:101F78000000000000000000000000000000000059
:101F88000000000000000000000000000060007871
:101F9800001E8007E00178007800E0018007001E3D
:101FA8000078006000000000000000000000000051
:101FB8000000000000000000801FE01F60183000D3
:101FC80030007000E001C0070006000600000006AF
:101FD800000F000F000600000000000000000000D5
:101FE800000000000000000000008007E01F6018EB
:101FF80030303030F0337037303630367837D833C9
:10200800003000300018E01FE0070000000000006A
:10201800000000000000000000000000001F001F7A
:1020280080078007C00CC00CC00C6018E01FE01FC0
:10203800601830303030FCFCFCFC00000000000070
:102048000000000000000000000000000000C07F49
:10205800E07F7018301830187018E01FF01F38181B
:102068001818181818183818F07FE07F00000000BA
:102078000000000000000000000000000000000058
:10208800D807F81F783C18301870006000600060AE
:1020980000600060007008303C3CF81FE00700005A
:1020A8000000000000000000000000000000000028
:1020B8000000807FE07FF0183018381818181818BA
:1020C80018181818181838183018F018E07F807F7A
:1020D80000000000000000000000000000000000F8
:1020E80000000000F87FF87F18181818D818C018D2
:1020F800C01FC01FC018C018181818181818F87F63
:10210800F87F000000000000000000000000000050
:10211800000000000000FC3FFC3F0C0C0C0C6C0C99
:10212800600CE00FE00F600C600C000C000C000C61
:10213800803F803F00000000000000000000000019
:102148000000000000000000D807F81F783C183095
:102158001870006000600060FC61FC611870183045
:10216800383CF81FE00700000000000000000000F5
:1021780000000000000000000000FCFCFCFC303007
:10218800303030303030F03FF03F303030303030A9
:1021980030303030FCFCFCFC000000000000000087
:1021A800000000000000000000000000F03FF03FC9
:1021B80000030003000300030003000300030003FF
:1021C800000300030003F03FF03F000000000000A0
:1021D8000000000000000000000000000000FC07F4
:1021E800FC07600060006000600060006000600044
:1021F800606060606060C070C03F000F0000000059
:1022080000000000000000000000000000000000C6
:10221800F8FCF8FC6030C030803100330037803F74
:10222800C039E0306030703030303CFC3CFC00009D
:102238000000000000000000000000000000000096
:102248000000807F807F000C000C000C000C000C4C
:10225800000C000C0C0C0C0C0C0C0C0CFC7FFC7F08
:102268000000000000000000000000000000000066
:10227800000000003CF03CF0787878787878D86CEA
:10228800D86CD86C986798671863186318607CF8DE
:102298007CF80000000000000000000000000000C2
:1022A800000000000000FCF1FCF93038303C303C04
:1022B800303630363033B031B031F030F030703045
:1022C80070FE30FE0000000000000000000000006A
:1022D8000000000000000000C00FF03F7878186090
:1022E8001CE00CC00CC00CC00CC00CC01CE018607A
:1022F8007878F03FC00F00000000000000000000E8
:1023080000000000000000000000C07FF07F3018CF
:102318001818181818183018F01FC01F00180018BF
:1023280000180018807F807F000000000000000077
:10233800000000000000000000000000C00FF03F97
:10234800787818601CE00CC00CC00CC00CC00CC025
:102358001CE018607878F03FC00F0004FC1F380EAE
:10236800000000000000000000000000000080FFE6
:10237800E0FF60303030303030306030E03F803F58
:10238800C031E030603070303CFC3CFC00000000A4
:102398000000000000000000000000000000000035
:1023A800B007F01F7018303000300038E01FF00F11
:1023B80038001800183018303038F03FC0370000A7
:1023C8000000000000000000000000000000000005
:1023D8000000F87FF87F1863186318631863000318
:1023E800000300030003000300030003E01FE01FD5
:1023F80000000000000000000000000000000000D5
:1024080000000000FCFCFCFC303030303030303054
:102418003030303030303030303030306018E01FFD
:10242800800700000000000000000000000000001D
:10243800000000000000FCFCFCFC30303030303084
:10244800601860186018C00CC00C800780078007EF
:10245800000300030000000000000000000000006E
:1024680000000000000000007CF87CF8186018608C
:102478001860186330333033B037B037B037E03CCA
:10248800E01C601860180000000000000000000058
:1024980000000000000000000000FCFCFCFC3030E4
:1024A8006018C00CC00C800700038007C00CC00C6B
:1024B80060183030FCFCFCFC00000000000000004C
:1024C800000000000000000000000000FCFCFCFC14
:1024D800303060186018C00CC00C800780070003FB
:1024E800000300030003E01FE01F000000000000DD
:1024F8000000000000000000000000000000F03FA5
:10250800F03F7030E030C0308001800100030006E9
:102518000006300C301C3038F03FF03F000000005F
:1025280000000000000000000000000000000000A3
:10253800C007C007000600060006000600060006E1
:102548000006000600060006000600060006000653
:1025580000060006C007C0070000000000000030A9
:10256800003000180018000C000C000600060003DC
:102578000003000380018001C000C000600060000B
:1025880030003000000000000000000000000000E3
:1025980000000000C007C007C000C000C000C000A5
:1025A800C000C000C000C000C000C000C000C00023
:1025B800C000C000C000C000C007C0070000000085
:1025C80000008001C0036006300C0000000000001D
:1025D80000000000000000000000000000000000F3
:1025E80000000000000000000000000000000000E3
:1025F80000000000000000000000000000000000D3
:1026080000000000000000000000000000000000C2
:1026180000000000000000000000FEFFFEFF0000B8
:10262800000000000000000C000E8003C000000045
:102638000000000000000000000000000000000092
:102648000000000000000000000000000000000082
:102658000000000000000000000000000000000072
:102668000000E007F01F38081800D807F81F3818CE
:10267800183018307818FE1F9E0700000000000070
:102688000000000000000000000000000078007852
:1026980000180018C01BF01F381C18180C180C184C
:1026A8000C180C181818381CF07FC07B00000000AC
:1026B8000000000000000000000000000000000012
:1026C800000000000000CC03FC0F3C1C0C180C3070
:1026D80000300030003008181C1CF80FE003000020
:1026E80000000000000000000000000000000000E2
:1026F8007800780018001800D803F80F381C18184C
:1027080018301830183018301818381CFE0FDE032F
:1027180000000000000000000000000000000000B1
:1027280000000000000000000000C003F00F381C8B
:1027380018180C30FC3FFC3F00300018181CFC0F28
:10274800F00300000000000000000000000000008E
:1027580000000000FC00FC0180030003F81FF81FC4
:102768000003000300030003000300030003000349
:10277800F81FF81F00000000000000000000000023
:102788000000000000000000000000000000DE0360
:10279800FE0F381C18181830183018301830181850
:1027A800381CF80FD807180018006000E01F801FB9
:1027B80000000000000000000078007800180018F1
:1027C800E019F01F381E18181818181818181818B3
:1027D800181818187E7E7E7E000000000000000099
:1027E800000000000000000080018001800100005E
:1027F8000000801F801F800180018001800180010E
:10280800800180018001FC3FFC3F000000000000C7
:1028180000000000000000000000C000C000C00070
:1028280000000000E01FE01F600060006000600022
:102838006000600060006000600060006000600090
:10284800C000C01F001F0000000000000000003C86
:10285800003C000C000CFC0CFC0C600CC00C800D47
:10286800000F800FE00C700C180C7E3C7E3C0000C2
:102878000000000000000000000000000000000050
:10288800801F801F800180018001800180018001FC
:10289800800180018001800180018001F81FF81FFC
:1028A8000000000000000000000000000000000020
:1028B800000000000000000000007877FC7FCC39A1
:1028C8008C318C318C318C318C318C318C31CE798E
:1028D800CE790000000000000000000000000000A9
:1028E800000000000000000000000000E079F07F18
:1028F800381E18181818181818181818181818182A
:102908007E7E7E7E000000000000000000000000C7
:102918000000000000000000000000000000C003EC
:10292800F00F381C18180C300C300C300C301818FC
:10293800381CF00FC0030000000000000000000079
:10294800000000000000000000000000000000007F
:10295800C07BF07F381C18180C180C180C180C18B1
:102968001818381CF01FC01B001800180018807FAA
:10297800807F000000000000000000000000000050
:102988000000DE03FE0F381C1818183018301830F5
:1029980018301818381CF80FD80318001800180039
:1029A800FE01FE0100000000000000000000000021
:1029B800000000007C1EFE1ECC0700070006000673
:1029C8000006000600060006E01FE01F00000000E9
:1029D80000000000000000000000000000000000EF
:1029E800000000000000D807F80F381C181800185D
:1029F800F00FF8070C000C181C1CF81FF01B000047
:102A080000000000000000000000000000000000BE
:102A18000000000600060006F83FF83F0006000622
:102A2800000600060006000604060E07FC03F00177
:102A3800000000000000000000000000000000008E
:102A480000000000000000000000F878F87818186E
:102A5800181818181818181818181818781CFE0FAD
:102A68009E070000000000000000000000000000B9
:102A78000000000000000000000000007E7E7E7E56
:102A880018181818300C300C60066006C003C00314
:102A9800800180010000000000000000000000002C
:102AA80000000000000000000000000000003E7C64
:102AB8003E7C0C300C30981998199819B00DF00F0D
:102AC800700E6006600600000000000000000000B4
:102AD80000000000000000000000000000000000EE
:102AE8007C3E7C3E300C6006C00380018001C00340
:102AF8006006300C7C3E7C3E0000000000000000B8
:102B080000000000000000000000000000000000BD
:102B180000007E7E7E7E18181818300C300C600677
:102B280060064003C0038001800100030003000623
:102B3800807F807F0000000000000000000000008F
:102B480000000000F81FF81F30186018C00080014E
:102B5800800100031806180CF81FF81F0000000079
:102B6800000000000000000000000000000000005D
:102B78006000E0018001000300030003000300037C
:102B8800000E001C000E00030003000300030003F6
:102B980000038001E001600000030003000300035C
:102BA8000003000300030003000300030003000305
:102BB80000030003000300030003000300030003F5
:102BC80000030003000300030003000000000000EE
:102BD80000000000000C000F00038001800180014C
:102BE80080018001E0007000E00080018001800128
:102BF8008001800180010003000F000C000000002C
:102C080000000000D807F00D0000000000000000E0
:102C180000000000000000000000000000000000AC
:102C2800000000000000000000000000000000009C
:102C3800000000000000000000000000000000008C
:102C480000000000000000000000000000008003F9
:102C5800C007C0078003000000000000000000005B
:102C680000000000000000000000F0FFF0FF30C688
:102C780030C600060006F807FC070E06060606061C
:102C88000606CE06FC3E783E00000000000000006C
:102C980000000000E000C00180030000FC3FFC3F92
:102CA8000C0C0C0C0C0C000C000C000C000C000C98
:102CB800000C000C000C803F803F0000000000006A
:102CC80000000000000000000000000000000000FC
:102CD80000000000000000000000000000000000EC
:102CE80000000000000080038003800080000001D5
:102CF8000002000000000000000000000000800347
:102D08000007000E0000F8FFF8FF183018300030F8
:102D18000030003000300030003000FC00FC0000C3
:102D2800000000000000000000000000000000009B
:102D3800000000000000000000000000000000008B
:102D480000000000000000000000701C701C10044F
:102D580010042008401000000000000000000000DF
:102D6800000000000000000000000000000000005B
:102D780000000000000000000000000060666066BF
:102D88006066000000000000000000000000000075
:102D9800000000000000800700030003F03FF03F40
:102DA80000030003800780070003000300030003FB
:102DB8000003000300000000000000000000000005
:102DC8000000000000000000800700030003F03F3F
:102DD800F03F000300038007800700030003F03F73
:102DE800F03F00030003800700000000000000001F
:102DF80000000000000000000000000000000000CB
:102E080000000000000000000000000000000000BA
:102E180000000000000000000000000000000000AA
:102E2800000000000000000000000000807800CDD5
:102E38000085008600CA007C000400080008BC0762
:102E4800E60C42184218E62CBC27000000000000DF
:102E58000000000000000000000000000000E0FF8B
:102E6800E0FF803180318031F831FC318E3186319C
:102E78008631863186718E61FCE7F8C70000000054
:102E8800000000000000000000000000000000003A
:102E980000000000000000000000800080018001A8
:102EA800000300030003800180018000000000008F
:102EB800000000000000000000000000000000000A
:102EC8000000E0F3E0F38061806180618061F87F59
:102ED800FC7F8E618661866186618E61FCF3F8F302
:102EE800000000000000000000000000C001800396
:102EF80000070000F8FCF8FC6030C0308031003377
:102F08000037803FC039E0306030703030303CFCF2
:102F18003CFC000000000000000000000000000071
:102F2800000000000000F0FFF0FF30C630C60006C9
:102F38000006F807FC070E0606060606060606063D
:102F48008E1F8E1F0000000000000000000000001F
:102F58000000000000000000FCFCFCFC30303030B9
:102F68003030303030303030303030303030303059
:102F78003030FCFFFCFF00030003000000000000ED
:102F880000000000000000000018C07FC07F00188B
:102F9800E019F01F381E18181818181818181818DB
:102FA80018181818187E187E18001800B003E001C9
:102FB800000000000000000000000000C000C00089
:102FC800C001C001800380038007000000000000EA
:102FD80000000000000000000000000000000000E9
:102FE8000000000000000000000000000000C00316
:102FF80080038003000700070006000600000000A9
:1030080000000000000000000000000000000000B8
:1030180000000000000000000000000000000000A8
:103028000C060C061C0E1C0E381C381C783C0000C4
:103038000000000000000000000000000000000088
:103048000000000000000000000000000000000078
:1030580000003C0F380E380E701C701C6018601889
:103068000000000000000000000000000000000058
:103078000000000000000000000000000000000048
:103088000000000000000000000000000000000038
:1030980000008003C007C007800300000000000094
:1030A8000000000000000000000000000000000018
:1030B8000000000000000000000000000000000008
:1030C8000000E00FE00F000000000000000000001A
:1030D80000000000000000000000000000000000E8
:1030E80000000000000000000000000000000000D8
:1030F80000000000FC7FFC7F0000000000000000D2
:1031080000000000000000000000000000000000B7
:1031180000000000000000000000000000000000A7
:103128000000000000000000000000000000000097
:103138000000000000000000000000000000000087
:103148000000000000000000000002FD86FDCE31F6
:10315800FE31B6318631863186310000000000002C
:103168000000000000000000000000000000000057
:103178000000000000000000000000000000000047
:1031880000000000F07FF07FC018C018C018FC18BD
:10319800FE18C618C238C630FEF3FCE30000000073
:1031A8000000000000000000000000000000000017
:1031B80000000000000000000000000200030003FF
:1031C800800180018001000300030002000000006C
:1031D80000000000000000000000000000000000E7
:1031E8000000000000000000E0F1E0F1C060C060F5
:1031F800C060FC7FFE7FC660C260C660FEF1FCF165
:1032080000000000000000000000000000000000B6
:103218000000E000C00180030000FC3CFC3C600CA6
:10322800C00C800D000F800FE00C700C180C7E3C59
:103238007E3C0000000000000000000000000000CC
:10324800000000000018C07FC07F0018E019F01FC0
:10325800381E1818181818181818181818181818C0
:103268007E7E7E7E0000000000000000000000005E
:1032780000000000000000000000000000007E7E4A
:103288007E7E1818181818181818181818181818EA
:103298001818FE7FFE7F80018001000000000000FA
:1032A8000000000000000000000000000000000016
:1032B8000000000000000000000000000000000006
:1032C80000000000000000000000000000000000F6
:1032D800000000000000C00C80070003FCFCFCFCA0
:1032E8003030303030186018600C600CC006C006F2
:1032F800800380038033003F000E000000000000C0
:103308000000000000000000000000006006C0038C
:10331800800100007E7E7E7E18181818300C300C54
:10332800600660064003C0038001800100030003BB
:103338000006807F807F0000000000000000000081
:10334800FC07FC076000600060006000600060002F
:103358006000606060606060C070C03F000F000087
:103368000000000000000000000000000000000055
:1033780000000820D017E00E301830181010301850
:103388003018E00ED01708200000000000000000F0
:103398000000000000000000000000000000000025
:1033A8000C000C00FC3FFC3F000C000C000C000C57
:1033B800000C000C000C000C000C000C000C803FF2
:1033C800803F000000000000000000000000000036
:1033D80000030003000300030003000300030003CD
:1033E80000030000000000000000000300030003C9
:1033F80000030003000300030003000300000000B3
:103408000000000000000000F007F00F300C301C36
:10341800003E0037C033E039701C380F9807D801D8
:10342800F80070186018E01FC01F000000000000BE
:103438000000701C701C00000000F87FF87F18184E
:103448001818D818C018C01FC01FC018C0181818DE
:1034580018181818F87FF87F000000000000000016
:10346800000000000000000000000000C007701C01
:1034780018300C60C447C6CCC28C028C028C66CC57
:10348800C4470C601830701CC00700000000000022
:103498000000000000000000000000000000D80745
:1034A800F81F783C183018700060807F807F0060BB
:1034B8000060007008303C3CF81FE0070000000086
:1034C80000000000000000000000000000000000F4
:1034D80000000000000000000000200260066006F6
:1034E800C00CC00CC00C6006600620020000000082
:1034F80000000000000000000000000000000000C4
:103508000000000000000000000000000000F87F3C
:10351800F87F1800180018001800000000000000CC
:103528000000000000000000000000000000000093
:103538000000000000000000000000000000000083
:1035480000000000F83FF83F000000000000000005
:103558000000000000000000000000000000000063
:10356800000000000000C007701C18300C60C44F39
:1035780066C66286C287C28666C6644F0C6018300B
:10358800701CC007000000000000000000000000E0
:103598006018601800000000F03FF03F00030003CF
:1035A80000030003000300030003000300030003FB
:1035B8000003F03FF03F00000000000000000000A2
:1035C800000000000000000000008007C00F601825
:1035D800601860186018C00F800700000000000025
:1035E80000000000000000000000000000000000D3
:1035F80000000000000000000000000000000003C0
:10360800000300030003F87FF87F000300030003B2
:10361800000300000000F87FF87F000000000000B1
:103628000000000000000000000000000000F03F63
:10363800F03F00030003000300030003000300033E
:103648000003000300030003F03FF03F0000000008
:103658000000000000000000000000008001800160
:10366800800100000000801F801F80018001800110
:1036780080018001800180018001FC3FFC3F000047
:103688000000000000000000000000000000000032
:103698000000000018001800F87FF87F00180018D4
:1036A800001800180018001800180018007E007E86
:1036B8000000000000000000000000000000000002
:1036C80000000000000000000000F878F8781818E2
:1036D800181818181818181818181818781CFE1F11
:1036E8009E1F001800180070006000000000000015
:1036F800000000000000F81F783E607E607E607E5B
:10370800607E607E603E601E600660066006600641
:1037180060066006781E781E0000000000000000A9
:103728000000000000000000000000000000000091
:1037380000008001C003C0038001000000000000F9
:103748000000000000000000000000000000000071
:103758000000000000000000300C300C00000000E9
:10376800C003F00F381C18180C30FC3FFC3F003029
:103778000018181CFC0FF0030000000000000000F7
:10378800000000000000000000000000FEF1FEF94B
:103798006638663C7E3C7E3660366033E031E03128
:1037A800E030E030603060FE60FE000000000000A5
:1037B8000000000000000000000000000000000001
:1037C80000000000CC03FC0F3C1C0C180C30803FA0
:1037D800803F003008181C1CF80FE00300000000B0
:1037E80000000000000000000000000000000000D1
:1037F800000000000000000000008008C00CC00CA1
:10380800600660066006C00CC00C8008000000005E
:103818000000000000000000000000000000C000E0
:10382800C000C00000000000E01FE01F6000600052
:103838006000600060006000600060006000600080
:1038480060006000C000C01F001F000000000000F2
:1038580000000000B007F01F70183030003000384A
:10386800E01FF00F38001800183018303038F03FDB
:10387800C037000000000000000000000000000049
:10388800000000000000000000000000D807F80F4A
:10389800381C18180018F00FF8070C000C181C1C1E
:1038A800F81FF01B000000000000000000000000EE
:1038B80000000000300C300C300C00000000801FAD
:1038C800801F8001800180018001800180018001CA
:1038D8008001FC3FFC3F00000000000000000000E9
:1038E80000000000000000000000001F001F80070B
:1038F8008007C00CC00CC00C6018E01FE01F6018E7
:1039080030303030FCFCFCFC0000000000000000FF
:10391800000000000000000000000000F07FF07FC1
:103928003018001800180018E01FF01F3818181871
:10393800181818183818F07FE07F00000000000001
:103948000000000000000000000000000000C07F30
:10395800E07F7018301830187018E01FF01F381802
:103968001818181818183818F07FE07F00000000A1
:10397800000000000000000000000000000000003F
:10398800FC3FFC3F0C0C0C0C0C0C000C000C000C4D
:10399800000C000C000C000C000C803F803F000065
:1039A800000000000000000000000000000000000F
:1039B8000000FC3FFC3F300C300C300C300C300C5D
:1039C800300C301C3018301830383070FCFFFCFFD9
:1039D8000CC00CC000000000000000000000000047
:1039E80000000000F87FF87F18181818D818C018B9
:1039F800C01FC01FC018C018181818181818F87F4A
:103A0800F87F000000000000000000000000000037
:103A18000000000000008E719E799819B00DB00D5D
:103A2800E007C003E007F00FB81D98199C398C31E6
:103A38008E718E7100000000000000000000000080
:103A48000000000000000000E01FF03F3870187010
:103A580018003000E001F001380018001800187054
:103A68003870F03FE01F0000000000000000000078
:103A7800000000000000000000003CFE7CFE7030EA
:103A8800F030F030B031B031303330363036303C91
:103A9800303C3038FCF9FCF1000000000000000068
:103AA80000000000300CF00FE00700003CFE7CFE38
:103AB8007030F030F030B031B0313033303630362D
:103AC800303C303C3038FCF9FCF1000000000000CC
:103AD8000000000000000000000000000000F8FCEA
:103AE800F8FC6030C030803100330037803FC03987
:103AF800E0306030703030303CFC3CFC00000000AE
:103B080000000000000000000000000000000000AD
:103B1800FC3FFC3F300C300C300C300C300C300CBF
:103B2800300C300C300C301C3018FC78FC70000065
:103B3800000000000000000000000000000000007D
:103B480000003CF03CF0787878787878D86CD86CBD
:103B5800D86C986798671863186318607CF87CF8C5
:103B6800000000000000000000000000000000004D
:103B780000000000FCFCFCFC3030303030303030CD
:103B8800F03FF03F30303030303030303030FCFCF7
:103B9800FCFC000000000000000000000000000025
:103BA800000000000000C00FF03F787818601CE0AB
:103BB8000CC00CC00CC00CC00CC01CE0186078789D
:103BC800F03FC00F000000000000000000000000EF
:103BD8000000000000000000FCFFFCFF3030303027
:103BE80030303030303030303030303030303030CD
:103BF8003030FCFCFCFC000000000000000000006D
:103C080000000000000000000000C07FF07F3018B6
:103C18001818181818183018F01FC01F00180018A6
:103C280000180018807F807F00000000000000005E
:103C3800000000000000000000000000D807F81F86
:103C4800783C183018700060006000600060006008
:103C5800007008303C3CF81FE0070000000000003E
:103C68000000000000000000000000000000F87FD5
:103C7800F87F1863186318631863000300030003D0
:103C88000003000300030003E01FE01F0000000022
:103C9800000000000000000000000000000000001C
:103CA800FCFCFCFC3030303030186018600C600CC4
:103CB800C006C006800380038033003F000E00006A
:103CC80000000000000000000000000000000000EC
:103CD8000000E00FE00F8003E00FF83FBC7B8C632F
:103CE8008EE38C63BC7BF83FE00F8003E00FE00FAE
:103CF80000000000000000000000000000000000BC
:103D080000000000FCFCFCFC30306018C00CC00C4B
:103D1800800700038007C00CC00C60183030FCFC22
:103D2800FCFC000000000000000000000000000093
:103D3800000000000000FCFCFCFC3030303030306B
:103D4800303030303030303030303030303030306B
:103D5800FCFFFCFF0C000C0000000000000000004D
:103D68000000000000000000FCFCFCFC303030309B
:103D78003030303030303030F03FF01F300030001D
:103D88003000FC00FC000000000000000000000003
:103D9800000000000000000000007EF87EF81863B4
:103DA8001863186318631863186318631863186333
:103DB80018631863FEFFFEFF00000000000000000B
:103DC8000000000000000000000000007CF87CF803
:103DD8001863186318631863186318631863186303
:103DE800186318631863FEFFFEFF06000600000054
:103DF800000000000000000000000000000000FFBC
:103E080000FF00CC00CC000C000CE00FF80F180CE1
:103E18000C0C0C0C0C0C180CF83FE03F00000000D8
:103E2800000000000000000000000000000000008A
:103E38003EFE3EFE0C300C300C300C300C3FCC3FBC
:103E4800CC306C306C306C30CC30DEFF1EFF0000A4
:103E5800000000000000000000000000000000005A
:103E68000000807F807F0018001800180018C01F0D
:103E7800F01F30181818181818183018F07FC07F5D
:103E8800000000000000000000000000000000002A
:103E980000000000C037F03F783C18301C300C00A0
:103EA800FC01FC010C000C001C0018207878F03F85
:103EB800C00F00000000000000000000000000002B
:103EC800000000000000E0F8F8FBBC670C660E6E0E
:103ED800066C067C067C066C066C0E6E0C66BC676F
:103EE800F8FBE0F8000000000000000000000000FF
:103EF8000000000000000000FC07FC1F30183030F4
:103F080030303030301CF01FF007300E301C3018C5
:103F18003038FCF0FCF00000000000000000000059
:103F28000000000000000000000000000000000089
:103F3800E007F01F38081800D807F81F381818309D
:103F480018307818FE1F9E070000000000000000CF
:103F580000000000000000001800F001E003C007A6
:103F6800000CC00BF01F381C18180C300C300C302B
:103F78000C301818381CF00FC003000000000000B7
:103F88000000000000000000000000000000000029
:103F980000000000F0FFF8FF0C300C301830F03F44
:103FA800F03F18300C301C30F8FFF0FF0000000024
:103FB80000000000000000000000000000000000F9
:103FC800000000000000F8FFF8FF1830183000303B
:103FD8000030003000300030003000FC00FC0000F1
:103FE80000000000000000000000000000000000C9
:103FF8000000000000000000FC3FFC3F300C300CCB
:10400800300C300C300C300C301C3018FC7FFC7F2E
:104018000C600C60000000000000000000000000C0
:1040280000000000000000000000C003F00F381C72
:1040380018180C30FC3FFC3F00300018181CFC0F0F
:10404800F003000000000000000000000000000075
:104058000000000000000000000000009E799E792A
:10406800B00DE007C0038001C003F00FB81D8C310C
:104078008E718E710000000000000000000000003A
:104088000000000000000000000000000000F00F29
:10409800F81F0C300C301800F003F00318000C3037
:1040A8001C30F81FF00F00000000000000000000A6
:1040B80000000000000000000000000000000000F8
:1040C8007E7E7E7E181838187818F818D819981B2C
:1040D800181F181E7E7C7E7800000000000000007B
:1040E800000000000000000000006006E0078001FA
:1040F80000007E7E7E7E181838187818F818D819AF
:10410800981B181F181E7E7C7E7800000000000097
:104118000000000000000000000000000000000097
:1041280000000000FC3CFC3C600CC00C800D000F43
:10413800800FE00C700C180C7E3C7E3C00000000E8
:104148000000000000000000000000000000000067
:10415800000000000000FC3FFC3F300C300C300C2D
:10416800300C300C300C301C3018FC78FC7000001F
:104178000000000000000000000000000000000037
:1041880000000000000000001E781E783C3C2C3423
:104198006C364C32CC338C318C310C301E781E7816
:1041A8000000000000000000000000000000000007
:1041B800000000000000000000007E7E7E7E1818CF
:1041C80018181818F81FF81F1818181818187E7ECD
:1041D8007E7E0000000000000000000000000000DB
:1041E800000000000000000000000000C003F00F05
:1041F800381C18180C300C300C300C301818381CBF
:10420800F00FC003000000000000000000000000E4
:104218000000000000000000000000000000FE7F19
:10422800FE7F1818181818181818181818181818B9
:1042380018187E7E7E7E000000000000000000004E
:104248000000000000000000000000000000000066
:10425800C07BF07F381C18180C180C180C180C1898
:104268001818381CF01FC01B001800180018807F91
:10427800807F000000000000000000000000000037
:104288000000CC03FC0F3C1C0C180C300030003034
:10429800003008181C1CF80FE003000000000000A4
:1042A8000000000000000000000000000000000006
:1042B80000000000FC3FFC3F8C318C318001800104
:1042C8008001800180018001E007E0070000000014
:1042D80000000000000000000000000000000000D6
:1042E8000000000000007E7E7E7E18181818300C32
:1042F800300C600660064003C003800180010003A3
:1043080000030006807F807F00000000000000009E
:10431800C00FC00F00030003C00FF03F38731863CD
:104328000CC30CC30CC30CC318633873F03FC00F25
:1043380000030003C00FC00F0000000000000000D1
:10434800000000000000000000007C3E7C3E300CB5
:104358006006C00380018001C0036006300C7C3E0B
:104368007C3E00000000000000000000000000008B
:104378000000000000000000000000007E7E7E7E3D
:1043880018181818181818181818181818181818A5
:10439800FE7FFE7F0600060000000000000000000F
:1043A80000000000000000000000000000007E7E09
:1043B8007E7E1818181818181818F81FF80F180003
:1043C80018007E007E0000000000000000000000D1
:1043D80000000000000000000000000000000000D5
:1043E8009E799E798C318C318C318C318C318C3129
:1043F8008C318C31FE7FFE7F000000000000000041
:1044080000000000000000000000000000000000A4
:1044180000009E799E798C318C318C318C318C31B5
:104428008C318C318C31FE7FFE7F06000600000047
:104438000000000000000000000000000000000074
:104448000000000000FC00FC00CC00CCF00FF80FCE
:104458003C0C0C0C0C0C3C0CF80FF00F000000008E
:104468000000000000000000000000000000000044
:104478000000000000003EFC3EFC0C300C308C3F7D
:10448800CC3FEC316C306C30EC31DEFF9EFF00002D
:104498000000000000000000000000000000000014
:1044A8000000000000000000007E007E00180018D8
:1044B800E01FF01F7818181818187818F07FE07F98
:1044C80000000000000000000000000000000000E4
:1044D80000000000000000000000C033F03F383C3E
:1044E80018300C30FC01FC010C0018103838F01F93
:1044F800C0070000000000000000000000000000ED
:10450800000000000000000000000000E0F8F8FBD8
:104518001C670C66066C067C067C066C0C661C67C1
:10452800F8FBE0F8000000000000000000000000B8
:104538000000000000000000000000000000FE0372
:10454800FE0F181C18181818181CF80FF803180371
:1045580018277E3E7E1C00000000000000000000BE
:1045680030313233343536373839616263646566E1
:104578006768696A6B6C6D6E6F707172737475764B
:084588007778797A0000000049
:04459000BD01000861
:044594009901000881
:104598000024F4000F190000A819000820FF0000EB
:1045A8000001000205002800003A015500B2050C80
:1045B8000C0033330036010000B7013500BB011988
:1045C80000C0012C00C20201FF00C3011200C40197
:1045D8002000C6010F00D002A4A100E00ED0040DF7
:1045E80011132B3F544C180D0B1F2300E10ED00460
:1045F8000C11132C3F44512F1F1F202300210000B2
:1046080011000205001300002900027803000000D1
:10461800002A0400000000002B0400000000002C09
:1046280000030000001000020A030000001100024D
:044638007803000003
:0400000508000809DE
:00000001FF
