:020000040800F2
:1000000000000120A507000855070008590700084F
:100010005D07000861070008650700080000000090
:100020000000000000000000000000006907000858
:100030006D07000800000000710700087507000840
:10004000F5070008F5070008F5070008F5070008A0
:10005000F5070008F5070008F5070008F507000890
:10006000F5070008F5070008F5070008F507000880
:10007000F5070008F5070008F5070008F507000870
:10008000F5070008F5070008F50700080000000064
:10009000000000000000000000000000F50700085C
:1000A000F5070008F5070008F5070008F507000840
:1000B000F5070008F5070008F5070008F507000830
:1000C000F5070008F5070008F5070008F507000820
:1000D000F5070008F5070008F50700080000000014
:1000E000F5070008F5070008F50700080000000004
:1000F000000000000000000000000000F5070008FC
:1001000000000000F5070008F5070008F5070008E3
:1001100000000000000000000000000000000000DF
:10012000F5070008F5070008F5070008850700082F
:10013000F5070008000000000000000000000000BB
:10014000000000000000000000000000F5070008AB
:10015000F5070008F5070008F5070008F50700088F
:10016000F5070008F5070008000000000000000087
:10017000000000000000000000000000000000007F
:1001800000000000F507000800000000000000006B
:04019000F507000867
:1001980010B5054C237833B9044B13B10448AFF3B9
:1001A80000800123237010BDA4000020000000007F
:1001B800FC17000808B5034B1BB103490348AFF30C
:1001C800008008BD00000000A8000020FC170008FF
:1001D8002E4A136823F0070343F0020310B5136097
:1001E800136803F00703022BFAD12949294B0A683F
:1001F80022F4404242F400420A601A6842F4803213
:100208001A601A689003FCD51A68234942F4002240
:100218001A605868214A01400A435A6059681D4AC1
:1002280021F440315960196841F0807119601368F0
:100238009901FCD5164A53685B04FCD5154CA36894
:1002480023F0F003A360A36823F4E05343F480533E
:10025800A360A36823F46043A360A36823F00303A7
:1002680043F00203A360A36803F00C03082BFAD140
:100278000B4801F027FA0A4801F046FAD4F88C3006
:1002880023F08073C4F88C3010BD00BF003C0240DE
:1002980000700040003802400080BFFF192A40006B
:1002A80000BD010500000000BF4AC04B1068C049EE
:1002B80040F400702DE9F04F1060106840F4806041
:1002C8001060106840F480701060586CB94A40F4AF
:1002D80080405864586CCBB000F48040129012985B
:1002E800186C40F0805018641B6C03F08053119315
:1002F800119BCB684FF6FF0423401A43CA60CB68B2
:10030800AB4CC3F30223C3F107011A1D042928BF0C
:100318000421062A88BFDA1E4FF0FF3303FA01F3DF
:1003280098BF0022DB4393401B01DBB284F82330E3
:10033800FFF74EFFA04BA14A1B68A2FB03239B09B2
:10034800013BB3F1807F09D24FF0E022F0205361E6
:100358000021072384F82300916113610025CDE96A
:100368002F55924C3195236B9548DFF84082DFF882
:1003780068A2944F43F080032363236B03F0800348
:100388001893189B236B43F001032363236B03F03B
:10039800010319931C22199B826101231C22CDE9B8
:1003A8002C232CA902232E9300F08CFF236B804A68
:1003B80043F480032363236B03F480031793179B91
:1003C800D368C3F30223C3F10702191D042A28BF07
:1003D8000422062988BFDD1E4FF0FF339340DB431C
:1003E80003F00303AB4078491B01DBB24FF0006018
:1003F80081F83B332822486000212CA801F0CEF96F
:1004080000232593D8F844306D4843F48053C8F846
:100418004430D8F8443003F480531593159BD8F82A
:10042800303043F00103C8F83030D8F8303003F0EA
:1004380001031693A0220223CDE92223169B03234E
:100448000122249322A90523CDE9262300F03AFFAF
:100458005E4B5F4A996D21F0606141F0C06199651A
:10046800996D21F0C00141F040019965996D21F421
:1004780040319965996D21F490719965996D21F4D0
:1004880000719965996D41F480619965996D21F4C0
:10049800C05141F400619965996D21F4C04141F45E
:1004A80000519965D96E21F00401D96600239FEDAA
:1004B8003C7BCDE932332C932E93309302232F9338
:1004C8004FF482732CA92D9310464FF400738DEDD1
:1004D800347B319300F09AFF3D4A5168002421F0A3
:1004E800100151602CA820222146CDE91D44CDE9F8
:1004F8001F44219401F052F9CDE92244CDE9244466
:10050800CDE92644D8F84020324B42F00202C8F820
:100518004020D8F8402002F002021392139A40F2C9
:10052800E7321DA9ADF874201846D1221F9200F0B9
:10053800A5FF284B1A684FF0804922F080021A6004
:10054800D9F81824602042F00802C9F818242C9021
:1005580069202CAA01212F901846CDE92D4430940A
:1005680000F0D8FFD9F818241A4B154822F00402D5
:10057800C9F818245A6822F070025A609A6822F062
:1005880080029A60D8F8303043F00103C8F8303060
:10059800D8F8303003F0010320E000BFAFF300804B
:1005A800000000000A000000003C02400038024041
:1005B80000ED00E00003FA0500000020D34D6210B2
:1005C80000000240C000002000E100E0006402409A
:1005D800003001400004004000FFFF001493149B0A
:1005E80002224023239222A9002222930223CDE94A
:1005F8002623CDE9244400F065FE4B4B279348A100
:10060800D1E900014FF0030E0822CDE924E3299334
:10061800ADF89820454B0422ADF8A0201022CDE972
:100628002201ADF8A8200FCB0DF1740989E80F005D
:1006380099E80F000DF12C0C8CE80F003C4B089347
:100648003C4B07933C4B06933C4B059302234FF4DA
:10065800A0780A9322AB0993CDE90344CDE901843C
:100668004FF0F00E3648CDF800E0734672462CA9DC
:10067800006800F013FA324B8046186000F0F4FA74
:100688004FF47F01404600F02FFC2E4B0093FF23D0
:10069800029340462C4B0394CDF804A022462146F1
:1006A80000F0A0FD4FF4FA602646254601F01AF83E
:1006B800D7F800B03B68A3EB0B03B3F57A7F4FF094
:1006C800000914D2310241EA05412143404600F0B5
:1006D8000BFC3B68A3EB0B03013502360434B3F57E
:1006E8007A7FEDB2F6B2E4B209F10109EAD31AA9A8
:1006F8000A22484601F050F80022FF23CDE90232D1
:10070800104B009340461146CDF804A01AAB00F0F8
:1007180069FD4FF47A7000F0E5FFC9E7AFF3008098
:100728000030014000640240000002401418000834
:10073800C5120008BD1200087512000855120008FD
:10074800C4000020040000204C180008FEE700BF89
:10075800FEE700BFFEE700BFFEE700BFFEE700BF01
:10076800704700BF704700BF704700BF024A136858
:1007780001331360704700BFC00000200148032107
:1007880000F036B800640240034AD2F8883043F4D7
:100798007003C2F88830704700ED00E0DFF834D00D
:1007A8000D480E490E4A002302E0D458C4500433C1
:1007B800C4188C42F9D30B4A0B4C002301E0136098
:1007C8000432A242FBD3FFF7DFFF00F0EFFFFFF791
:1007D8006BFD70470000012000000020A4000020ED
:1007E80054440008A4000020C8000020FEE70000D0
:1007F80030B5354B84468E4693E8030083B002AB90
:1008080003E903000EF108026A44BEF1030F12F86F
:10081800082C4FF03F0303FA02F388BF0CF10C01D8
:100828002A4A98BF0CF108010B6013682BB19A6A29
:10083800944504D01B6F002BF9D103B030BDDA6AA0
:100848009645F7D11C6C24B16269B3F84410114283
:10085800F0D11F4A12F80E005CF8002022F00102C5
:100868004CF800200CEB00010A6812F00102FBD1E1
:100878001D6EA5B9596A4A6822F002024A608A6860
:100888001206FCD493F865201AB914B1B3F84430B1
:10089800A3610B6823F040030B6003B030BDB5F5CE
:1008A800803F09D24D605CF800101A6641F00101E2
:1008B8004CF8001003B030BDA5F57F424FF6FF7429
:1008C800FF3A4C60EFE700BF24180008C40000207E
:1008D8005C180008F8B5456A04462B685F06FCD426
:1008E80094F865302BB9236C1BB1B4F8442012047A
:1008F8009A612B6823F42C432B602B6843F0400348
:100908002B600B78012B39D0022B51D063B194F8AE
:10091800653023B9236C13B1B4F844209A612B686D
:1009280023F040032B60F8BDA28F636AA66B48785A
:100938001204B26118739A689607FCD59A68100673
:10094800FCD48F7801F1030E002F37D007F1030C88
:100958008C447046636AA16B10F8012BA68F8E61D8
:100968001A739A689207FCD59A681606FCD48445CF
:10097800F0D10EEB07010B78012BC5D14F7801F1AF
:10098800020EDFB107F1020C8C447046636AA16B5A
:1009980010F8012BA68F8E611A739A689107FCD5FF
:1009A8009A681206FCD48445F0D10EEB0701E2E701
:1009B80048788E1C00F096FE3146A2E77146A0E703
:1009C80070B504464089A589A66901442A4488B2BD
:1009D80092B21D46114613460246B04701462046CC
:1009E800FFF778FF2C4A94F84800C5F3C40102EADF
:1009F80015226B09114303F4FC631943012889B2DA
:100A080001D149BA89B2636A1A685606FCD494F8C7
:100A180065202AB9256C1DB1B4F844201204AA61D6
:100A280094F8662012B9A26BA58F95611A680228FE
:100A380022F42C421A601ED01868CAB240F0400056
:100A480018601A739A689507FCD5C1F307211973C2
:100A58009A689007FCD59A681206FCD494F8652029
:100A680022B9226C12B1B4F8441091611A6822F0CC
:100A780040021A6070BD1A6842F400621A601A686F
:100A880042F040021A6099819A689107FCD59A68E9
:100A98001206E0D4E2E700BF00F8FFFF2DE9F04FAF
:100AA80083B0CDE90023BDF83090BDF83480BDF99E
:100AB8003860BDF93C709DF840A09DF858B00C46D0
:100AC800002900F0AD80742200210546204600F080
:100AD80065FEDDF854C084F848B0BCE80F0004F1A6
:100AE800240EAEE80F00BCE80F00AEE80F00DCF8FB
:100AF8000030CEF80030A26A002A35D0E36A59499E
:100B0800C95C535823F00103535050180368DB079E
:100B1800FCD4BBF1010F0BD0BBF1020F0ED153581F
:100B280023F4F0435350535843F42053535005E0F3
:100B3800535823F4F043535053585350535823F405
:100B4800802323F00E035350436923F0800343614D
:100B5800535843F010035350535823F40073535021
:100B6800535843F480635350019A00998A421346BC
:100B780038BF0B468A4228BF0A46BAF1000F3AD15D
:100B880091456681A781A280E380A4F80090A4F82B
:100B9800028049D3434547D8119B002B44D0129B70
:100BA800002B41D0119A6261129AA261139AE261F4
:100BB80017AB149A22620FCB002704F14C0684F875
:100BC80008A086E80F00C4E91B7784F86470E7651D
:100BD80035B32B6F4BB101221D461B6F511C1046BC
:100BE800CAB2002BF8D184F864002046E5662C6769
:100BF80003B0BDE8F08FBAF1020F1ED0BAF1010FB1
:100C080024D0BAF1030F0FD1A8EB0701C91A9446F3
:100C1800484637461A46C1460EB263468046AFE795
:100C2800204603B0BDE8F08F74220021204600F072
:100C3800B5FD002003B0BDE8F08FA9EB0606A8EBD0
:100C48000707B61AFF1A36B23FB299E7A9EB0601B1
:100C5800891A944648463E461A46C1460FB263462C
:100C680080468DE75C180008036B10B504465BB13D
:100C7800828E12049A61192000F034FD236BA28E33
:100C88009A61192000F02EFD6369207A9847014681
:100C98002046FFF71FFE94F85A10E26C64290B46B1
:100CA80028BF642384F85A300AB3D16A174801FB75
:100CB80003F3216DA0FB0303B1F5807F4FEA5313C3
:100CC80022D00FD801291AD0102908BF93631368BE
:100CD800DB0706D4136A19431162136843F0010352
:100CE800136010BDB1F5805FF1D11364EFE7636D58
:100CF800002BF6D0B4F8582019B19A6110BD53638F
:100D0800E5E712049A61F9E7D363E0E71F85EB5141
:100D1800F0B51C4683B0A142BDF82030099F8C462F
:100D2800054601D9A4460C469A4202D911461A46EC
:100D38000B46A988614540F28880E888904240F2D5
:100D48008480A1429CBF01F1FF318CB298429CBFC4
:100D580000F1FF3083B2A98968899E1A01360B44D5
:100D680011442218A4EB0C0460449BB289B292B2DD
:100D780004FB066680B2AC69A04701462846FFF727
:100D8800A9FD95F8651029B92A6C1AB1B5F844304F
:100D98001B04936195F8663013B9AB6BAA8F9A61FF
:100DA8004E4BC7F3C40003EA172318437F0995F88D
:100DB800483007F4FC673843012B80B26BD06A6A6D
:100DC800A5F86800146824F42C441460022B1368F6
:100DD8003DD143F400631360136843F0400313608C
:100DE800AB6A002B70D0EC6A3D483E49075D03C9E9
:100DF8000DF1080C0CE9030004F10801032C0DEBBC
:100E080001041F4414F8080C8CBF0C3308333F212D
:100E180081401960536843F00203536005F1680389
:100E28000C32BA60FB603B6823F400733B603B689C
:100E3800B6F5803F23F480633B603ED27E60002697
:100E48003B682E6643F001033B6003B0F0BD43F0FE
:100E580040031360AB6A002BC5D1C3B2000A5EB170
:100E680013739468A407FCD510739468A107FCD584
:100E7800023EF5D195F8651093681B06FCD421B99C
:100E88002B6C13B1B5F844109961136823F0400333
:100E9800136003B0F0BDD5E90923146840BA24F4FF
:100EA8002C44A5F868001460146844F0400480B22B
:100EB8001460002BD1D0760095E74FF6FF73A6F5A6
:100EC8007F467B60FF3EBBE7741E002ED4D0908126
:100ED80093689E07FCD5013CF9D2CDE700F8FFFFE7
:100EE8005C1800082418000810B5C4888388013CE1
:100EF80082B00022A4B2013BCDE900419BB2114669
:100F0800FFF706FF02B010BD2DE9F04F87B0064687
:100F180093461846B24A119B96F84850DDF840901F
:100F2800039102EA1322C3F3C40848EA02085A09E3
:100F380002F4FC6248EA0208012D129A9DF84C104E
:100F4800D9F804401FFA88F803D198FA98F81FFADC
:100F580088F8A34F07EA122CC2F3C407520947EADC
:100F68000C0702F4FC621743012DBFB201D17FBA0E
:100F7800BFB299F80820824204D899F809508542EE
:100F880080F00481002299F80000451EED100295BA
:100F98000135042D019500F3A98099F801C005FBDE
:100FA80002F20CFB024AEA00013A012505FA02F2B4
:100FB800746A0492A1B1BCF1000F00F097804FF061
:100FC8000008119315460346304646460299032900
:100FD80000F29180DFE811F0C700D700CA008D0049
:100FE800B289039DB6F80AE00BF1FF3313445A4463
:100FF80091B26A1E7244024428466344704492B215
:101008009BB2B56980B2A84701463046FFF762FC3B
:10101800326C1AB1B6F844301B049361B36BB18FCC
:101028009961236823F040032360236823F42C4349
:10103800236096F84830022B00F0AB80236843F019
:101048004003236099F80130002B41D099F800C083
:10105800DDF804E0049D0020BEF1010F00F0AF8030
:10106800BEF1020F00F0AE80BEF1030F00F0AD80BC
:10107800DAF80010F244BCF1000F25D0002201FA82
:1010880002F32B4214BFC446BC46A3689B07FCD599
:1010980096F84830022B40F08180A4F80CC099F8EB
:1010A80000C0013294450DDD01FA02F32B4214BF52
:1010B800C346BB46A3689B07FCD501329445A4F8F8
:1010C8000CB0F1DC99F8013001308342C4DC326C99
:1010D800A3689907FCD5A3681B06FCD4236823F0F2
:1010E8004003236012B1B6F84430936107B0BDE8FD
:1010F800F08FDAF80080019A9244002BF6D0039C16
:1011080000270FFA8BF203E00134BB42A4B220DDC2
:1011180008FA07F1294207F10107F5D0B0F804C031
:1011280021B28C454BEA040EEEDDB0F806C09445BA
:10113800EADD1EF4004FE7D1119BCDE90402FFF769
:101148003FFC99F800300134BB42DDE90402A4B247
:10115800DEDC99F8012001369642C7DA0BF1010B63
:101168001FFA8BFB32E79AF80080C4E79AF80280EE
:101178009AF801204FEA084848EA02289AF800201D
:1011880048EA0208B7E7BAF80080B4E7821AD2B290
:10119800F9E6236843F4006323604FE75FFA8CF3B2
:1011A8002373CCF3072CA3689B07FCD584F80CC0E9
:1011B80099F800C001326245FFF661AF82E79AF8FC
:1011C800001057E7BAF8001054E79AF802109AF896
:1011D8000120090441EA02219AF80020114349E755
:1011E80000F8FFFF2DE9F04F1F4685B01B780E9ED3
:1011F8009DF844A0DDE90F8905460C469346F3B1F6
:101208003178AA8821449142284609DD7278E98814
:1012180093441FFA8BFB5A448A424FF000040EDCB9
:101228002146CDE9029ACDE900685A46FFF76CFEDF
:10123800317817F8013F0C44A4B2002BE1D1EC81BE
:10124800A5F810B005B0BDE8F08F00BF0138C0B2F6
:1012580002289CBF034B1B5C034888BF0023C3754F
:10126800704700BF244400081000002000B54FEA72
:10127800102C4FF0000E6CF3070E60F30F2E100ABF
:1012880060F3174E62F31F6E4FF0000C0A0A62F308
:10129800070C61F30F2C1A0A054862F3174C63F325
:1012A8001F6CC0F803E0C0F80AC05DF804FB00BF7B
:1012B80080000020004870479400002000487047D4
:1012C8009C0000202DE9F0470C6894FAA4F2B2FAC9
:1012D80082F234FA02F37DD04FF0010E4FF0030C86
:1012E8004FF00F0A17E0D0F8008093FAA3F7B7FA87
:1012F80087F793FAA3F3B3FA83F37F000CFA07F79F
:101308005B0028EA07089D4048EA050505600132A8
:1013180034FA02F35ED00EFA02F32340F7D04D6898
:101328006F1E012F1FD8D0F8088093FAA3F7B7FAD9
:1013380087F793FAA3F98E68B9FA89F97F000CFA4E
:1013480007F74FEA490928EA070706FA09F847EABA
:10135800080787604768CE6827EA030706FB03F893
:1013680047EA08074760D0F80C8093FAA3F7B7FA62
:1013780087F793FAA3F97F000CFA07F728EA07081A
:10138800B9FA89F90F694FEA490907FA09F948EAE8
:101398000907022DC760A6D193FAA3F7B7FA87F712
:1013A800072F1ADCD0F8208093FAA3F7B7FA87F74B
:1013B80093FAA3F94E69B9FA89F9BF000AFA07F74F
:1013C8004FEA890928EA070706FA09F847EA0807E9
:1013D800076288E70020BDE8F087D0F824901F0A4C
:1013E80097FAA7F8B8FA88F897FAA7F74E69B7FAFC
:1013F80087F74FEA88080AFA08F8BF0029EA0809B7
:1014080006FA07F749EA070747626CE702460068E9
:1014180010F0400028D1136830B423F47F4CD1E990
:1014280000352B438D684C692B43CD682B430D69E0
:101438002B438D6923432B43CD692B430D6A2CF035
:10144800BF0C2B4343EA0C031360536823F00403D7
:1014580043EA1443B5F5005F53600BD0D36923F416
:10146800006330BCD3617047D36923F40063012063
:10147800D36170478B8C1361F0E700BF244A03687F
:10148800904230B434D0B0F1804F1DD0A2F57C42E8
:10149800904219D002F58062904215D002F5806220
:1014A800904211D002F59A32904211D002F5806232
:1014B80090420DD002F58062904209D08C680A886B
:1014C8000360C46282620CE04A6823F0700313432D
:1014D800CD688C680A8823F440732B430360C46288
:1014E8008262436943F00103436130BC00207047C6
:1014F8004C68CA6823F07003234323F440731343F2
:1015080003608A680B88C26283620B690363E8E739
:1015180000000140B1F5807F30B403466CD025D877
:1015280001294BD0102946D1016A156921F0100113
:101538000162016A40689C6921F0200141EA0511B5
:10154800156824F4E64444EA0524556821F010019E
:1015580041EA05115A4DAB4200F09780D2685860B5
:101568009C6100209A6330BC19627047B1F5805FB6
:1015780021D1016A156921F480510162016A40682C
:10158800DC6921F4005141EA0531156824F4E64488
:1015980044EA0524556821F4805141EA0531484D53
:1015A800AB4200F08780D2685860DC6100201A6482
:1015B80030BC19627047012030BC7047016A156958
:1015C80021F001010162016A40689C6921F0020171
:1015D8002943156824F073042C43556821F0010150
:1015E8002943374DAB423CD0D26858609C610020FB
:1015F8005A6330BC19627047016A156921F4807119
:101608000162016A4068DC6921F4007141EA052140
:10161800156824F073042C43556821F4807141EA5D
:101628000521274DAB4207D0D2685860DC61002005
:10163800DA6330BC19627047556921F4006141EAE8
:101648008521956920F4805040EA0510956821F4B9
:10165800806141EA8521D56920F4005040EA4510AF
:10166800E2E7556921F0080141EA8501956920F40E
:1016780080702843956821F0040141EA8501D56905
:1016880020F4007040EA4500AEE7556921F080017A
:1016980041EA8511956920F4806040EA85009568E3
:1016A80021F0400141EA8511D56920F4006040EA43
:1016B800C50053E7956920F4804040EA851072E739
:1016C80000000140064BA3FB00239B094FF0E022DA
:1016D800013B00200521536190611161704700BFF3
:1016E800D34D62104FF0E02382B01B690193421C76
:1016F800019B18BF01304FF0E0221369DB03FCD5D2
:101708000138FAD102B07047014B1860704700BF2A
:1017180000000020F0B51F4C8BB005460B466E4606
:1017280004F1200C20686168374603C70834644513
:101738003E46F7D121793971911E206838602229F7
:101748004FF0000104D919700B4618460BB0F0BDD4
:10175800581E8446B5FBF2F702FB175628366E442E
:101768000C4616F8286C0CF8016F2E46B24201F1AF
:1017780001013D46EED900225A541919A51AAA4268
:10178800E3DA10F8015F0E780670013201F80159AA
:10179800F4E700BF27440008FFF7BCBF0244034634
:1017A800934200D1704703F8011BF9E770B50D4D5E
:1017B8000D4C641BA4100026A64209D10B4D0C4CFD
:1017C80000F018F8641BA4100026A64205D170BDCD
:1017D80055F8043B98470136EEE755F8043B98471F
:1017E8000136F2E74C4400084C4400084C44000819
:1017F80050440008F8B500BFF8BC08BC9E467047C6
:0C180800F8B500BFF8BC08BC9E46704755
:10181400000400400100000000000000000032004D
:101824000006101600061016003A0166002A04008D
:10183400000000002B0400000000002E0003000044
:10184400003A01550300000048656C6C6F2C20774A
:101854006F726C6421000000102840587088A0B892
:101864000000000000000000000000000000000074
:101874000000000000000000000000000000000064
:101884000000000000000000000000000000000054
:10189400000000000000000000000000000300033E
:1018A400000300030003000300030003000300031C
:1018B4000000000380078007000300000000000010
:1018C4000000000000000000000000000000C00C48
:1018D400C00CC00CC00CC00CC00C00000000000008
:1018E40000000000000000000000000000000000F4
:1018F40000000000000000000000000000000000E4
:101904001803180330063006FC7FFC7F600C600C63
:10191400C018C018F8FFF8FF8031803100630063FD
:1019240000000000000000000000000000000000B3
:10193400000000030003B007F00F701C30180018FB
:10194400E00FF00718001818381CF01FE01B800186
:101954008001800100000000000000000000000081
:1019640000000000003E0077006300630077383E0B
:10197400E0008003000EF838DC018C018C01DC01EE
:10198400F80000000000000000000000000000005B
:101994000000000000000000000FC01F80180018A5
:1019A400001C000C000E301FE033E031C030E03882
:1019B400F01F300F000000000000000000000000D5
:1019C4000000000000000000000300030003000307
:1019D40000030003000000000000000000000000FD
:1019E40000000000000000000000000000000000F3
:1019F40000000000000000000000C000C00100035F
:101A04000003000600060006000C000C000C000C8D
:101A1400000C000C00060006000600030003C001D1
:101A2400C00000000000000000000000000C000ED8
:101A340000030003800180018001C000C000C000D9
:101A4400C000C000C00080018001800100030003C9
:101A5400000E000C00000000000000000000000365
:101A6400000300033033F03FC00F8007C00FE01CB9
:101A7400400800000000000000000000000000001A
:101A84000000000000000000000000000000000052
:101A94000000000000000003000300030003000333
:101AA400F87FF87F00030003000300030003000035
:101AB4000000000000000000000000000000000022
:101AC4000000000000000000000000000000000012
:101AD4000000000000000000C003C00380030007F2
:101AE4000007000E000C000C0000000000000000C5
:101AF40000000000000000000000000000000000E2
:101B040000000000F83FF83F000000000000000063
:101B140000000000000000000000000000000000C1
:101B240000000000000000000000000000000000B1
:101B34000000000000000000000000000003800717
:101B44008007000300000000000000000000000007
:101B5400000000003000300060006000C000C000E1
:101B64008001800100030003000300060006000C4E
:101B7400000C0018001800300030000000000000C5
:101B8400000000000000000000008007E01F601853
:101B94003030303030303030303030303030303041
:101BA40030306018E01F80070000000000000000D3
:101BB4000000000000000000000000008003801FFF
:101BC400801D8001800180018001800180018001ED
:101BD400800180018001F81FF81F00000000000050
:101BE400000000000000000000000000000080076A
:101BF400E01F60183018300030006000E000C001C1
:101C040080030007000E3018F03FF03F0000000092
:101C140000000000000000000000000000000000C0
:101C2400800FC03FE03060006000E000C003E003CC
:101C340070003000300030006038E03F800F00005A
:101C44000000000000000000000000000000000090
:101C54000000C000C001C003C002C006C00CC00820
:101C6400C018C830F83FF83FC000C000F003F003CC
:101C74000000000000000000000000000000000060
:101C840000000000E03FE03F0030003000308037CB
:101C9400E03F603830003000300030006038E03F12
:101CA400800F0000000000000000000000000000A1
:101CB400000000000000F001F00F000E00180018F2
:101CC40000308037E03F60383030303030306018DA
:101CD400E01F80070000000000000000000000007A
:101CE4000000000000000000F03FF03F30306000D2
:101CF4006000C000C0008001800180010003000377
:101D040000060006000C00000000000000000000B7
:101D1400000000000000000000008007E01F6018C1
:101D2400303030306018C00FC00F601830303030A1
:101D340030306018E01F8007000000000000000041
:101D44000000000000000000000000008007E01F09
:101D540060183030303030307018F01FB007300069
:101D640060006000C001C03F003E000000000000B1
:101D7400000000000000000000000000000000005F
:101D8400000000000003800780070003000000003B
:101D9400000000000003800780070003000000002B
:101DA400000000000000000000000000000000002F
:101DB400000000000000000380078007000300000B
:101DC400000000000000800780070007000E000EDE
:101DD400001C0018001800000000000000000000B3
:101DE400000000000000000018007800E0018007F7
:101DF400001E00780078001E8007E00178001800BB
:101E040000000000000000000000000000000000CE
:101E140000000000000000000000000000000000BE
:101E2400F87FF87F00000000F87FF87F00000000D2
:101E3400000000000000000000000000000000009E
:101E440000000000000000000000000000600078B6
:101E5400001E8007E00178007800E0018007001E82
:101E64000078006000000000000000000000000096
:101E74000000000000000000801FE01F6018300018
:101E840030007000E001C0070006000600000006F4
:101E9400000F000F0006000000000000000000001A
:101EA400000000000000000000008007E01F601830
:101EB40030303030F0337037303630367837D8330E
:101EC400003000300018E01FE007000000000000B0
:101ED400000000000000000000000000001F001FC0
:101EE40080078007C00CC00CC00C6018E01FE01F06
:101EF400601830303030FCFCFCFC000000000000B6
:101F04000000000000000000000000000000C07F8E
:101F1400E07F7018301830187018E01FF01F381860
:101F24001818181818183818F07FE07F00000000FF
:101F3400000000000000000000000000000000009D
:101F4400D807F81F783C18301870006000600060F3
:101F540000600060007008303C3CF81FE00700009F
:101F6400000000000000000000000000000000006D
:101F74000000807FE07FF0183018381818181818FF
:101F840018181818181838183018F018E07F807FBF
:101F9400000000000000000000000000000000003D
:101FA40000000000F87FF87F18181818D818C01817
:101FB400C01FC01FC018C018181818181818F87FA8
:101FC400F87F000000000000000000000000000096
:101FD400000000000000FC3FFC3F0C0C0C0C6C0CDF
:101FE400600CE00FE00F600C600C000C000C000CA7
:101FF400803F803F0000000000000000000000005F
:102004000000000000000000D807F81F783C1830DA
:102014001870006000600060FC61FC61187018308A
:10202400383CF81FE007000000000000000000003A
:1020340000000000000000000000FCFCFCFC30304C
:10204400303030303030F03FF03F303030303030EE
:1020540030303030FCFCFCFC0000000000000000CC
:10206400000000000000000000000000F03FF03F0E
:102074000003000300030003000300030003000344
:10208400000300030003F03FF03F000000000000E5
:102094000000000000000000000000000000FC0739
:1020A400FC07600060006000600060006000600089
:1020B400606060606060C070C03F000F000000009E
:1020C400000000000000000000000000000000000C
:1020D400F8FCF8FC6030C030803100330037803FBA
:1020E400C039E0306030703030303CFC3CFC0000E3
:1020F40000000000000000000000000000000000DC
:102104000000807F807F000C000C000C000C000C91
:10211400000C000C0C0C0C0C0C0C0C0CFC7FFC7F4D
:1021240000000000000000000000000000000000AB
:10213400000000003CF03CF0787878787878D86C2F
:10214400D86CD86C986798671863186318607CF823
:102154007CF8000000000000000000000000000007
:10216400000000000000FCF1FCF93038303C303C49
:10217400303630363033B031B031F030F03070308A
:1021840070FE30FE000000000000000000000000AF
:102194000000000000000000C00FF03F78781860D5
:1021A4001CE00CC00CC00CC00CC00CC01CE01860BF
:1021B4007878F03FC00F000000000000000000002D
:1021C40000000000000000000000C07FF07F301815
:1021D4001818181818183018F01FC01F0018001805
:1021E40000180018807F807F0000000000000000BD
:1021F400000000000000000000000000C00FF03FDD
:10220400787818601CE00CC00CC00CC00CC00CC06A
:102214001CE018607878F03FC00F0004FC1F380EF3
:10222400000000000000000000000000000080FF2B
:10223400E0FF60303030303030306030E03F803F9D
:10224400C031E030603070303CFC3CFC00000000E9
:10225400000000000000000000000000000000007A
:10226400B007F01F7018303000300038E01FF00F56
:1022740038001800183018303038F03FC0370000EC
:10228400000000000000000000000000000000004A
:102294000000F87FF87F186318631863186300035D
:1022A400000300030003000300030003E01FE01F1A
:1022B400000000000000000000000000000000001A
:1022C40000000000FCFCFCFC30303030303030309A
:1022D4003030303030303030303030306018E01F43
:1022E4008007000000000000000000000000000063
:1022F400000000000000FCFCFCFC303030303030CA
:10230400601860186018C00CC00C80078007800734
:1023140000030003000000000000000000000000B3
:1023240000000000000000007CF87CF818601860D1
:102334001860186330333033B037B037B037E03C0F
:10234400E01C60186018000000000000000000009D
:1023540000000000000000000000FCFCFCFC303029
:102364006018C00CC00C800700038007C00CC00CB0
:1023740060183030FCFCFCFC000000000000000091
:10238400000000000000000000000000FCFCFCFC59
:10239400303060186018C00CC00C80078007000340
:1023A400000300030003E01FE01F00000000000022
:1023B4000000000000000000000000000000F03FEA
:1023C400F03F7030E030C03080018001000300062F
:1023D4000006300C301C3038F03FF03F00000000A5
:1023E40000000000000000000000000000000000E9
:1023F400C007C00700060006000600060006000627
:102404000006000600060006000600060006000698
:1024140000060006C007C0070000000000000030EE
:10242400003000180018000C000C00060006000321
:102434000003000380018001C000C0006000600050
:102444003000300000000000000000000000000028
:1024540000000000C007C007C000C000C000C000EA
:10246400C000C000C000C000C000C000C000C00068
:10247400C000C000C000C000C007C00700000000CA
:1024840000008001C0036006300C00000000000062
:102494000000000000000000000000000000000038
:1024A4000000000000000000000000000000000028
:1024B4000000000000000000000000000000000018
:1024C4000000000000000000000000000000000008
:1024D40000000000000000000000FEFFFEFF0000FE
:1024E400000000000000000C000E8003C00000008B
:1024F40000000000000000000000000000000000D8
:1025040000000000000000000000000000000000C7
:1025140000000000000000000000000000000000B7
:102524000000E007F01F38081800D807F81F381813
:10253400183018307818FE1F9E07000000000000B5
:102544000000000000000000000000000078007897
:1025540000180018C01BF01F381C18180C180C1891
:102564000C180C181818381CF07FC07B00000000F1
:102574000000000000000000000000000000000057
:10258400000000000000CC03FC0F3C1C0C180C30B5
:1025940000300030003008181C1CF80FE003000065
:1025A4000000000000000000000000000000000027
:1025B4007800780018001800D803F80F381C181891
:1025C40018301830183018301818381CFE0FDE0375
:1025D40000000000000000000000000000000000F7
:1025E40000000000000000000000C003F00F381CD1
:1025F40018180C30FC3FFC3F00300018181CFC0F6E
:10260400F0030000000000000000000000000000D3
:1026140000000000FC00FC0180030003F81FF81F09
:10262400000300030003000300030003000300038E
:10263400F81FF81F00000000000000000000000068
:102644000000000000000000000000000000DE03A5
:10265400FE0F381C18181830183018301830181895
:10266400381CF80FD807180018006000E01F801FFE
:102674000000000000000000007800780018001836
:10268400E019F01F381E18181818181818181818F8
:10269400181818187E7E7E7E0000000000000000DE
:1026A40000000000000000008001800180010000A3
:1026B4000000801F801F8001800180018001800153
:1026C400800180018001FC3FFC3F0000000000000D
:1026D40000000000000000000000C000C000C000B6
:1026E40000000000E01FE01F600060006000600068
:1026F40060006000600060006000600060006000D6
:10270400C000C01F001F0000000000000000003CCB
:10271400003C000C000CFC0CFC0C600CC00C800D8C
:10272400000F800FE00C700C180C7E3C7E3C000007
:102734000000000000000000000000000000000095
:10274400801F801F80018001800180018001800141
:10275400800180018001800180018001F81FF81F41
:102764000000000000000000000000000000000065
:10277400000000000000000000007877FC7FCC39E6
:102784008C318C318C318C318C318C318C31CE79D3
:10279400CE790000000000000000000000000000EE
:1027A400000000000000000000000000E079F07F5D
:1027B400381E18181818181818181818181818186F
:1027C4007E7E7E7E0000000000000000000000000D
:1027D4000000000000000000000000000000C00332
:1027E400F00F381C18180C300C300C300C30181842
:1027F400381CF00FC00300000000000000000000BF
:1028040000000000000000000000000000000000C4
:10281400C07BF07F381C18180C180C180C180C18F6
:102824001818381CF01FC01B001800180018807FEF
:10283400807F000000000000000000000000000095
:102844000000DE03FE0F381C18181830183018303A
:1028540018301818381CF80FD8031800180018007E
:10286400FE01FE0100000000000000000000000066
:10287400000000007C1EFE1ECC07000700060006B8
:102884000006000600060006E01FE01F000000002E
:102894000000000000000000000000000000000034
:1028A400000000000000D807F80F381C18180018A2
:1028B400F00FF8070C000C181C1CF81FF01B00008C
:1028C4000000000000000000000000000000000004
:1028D4000000000600060006F83FF83F0006000668
:1028E400000600060006000604060E07FC03F001BD
:1028F40000000000000000000000000000000000D4
:1029040000000000000000000000F878F8781818B3
:10291400181818181818181818181818781CFE0FF2
:102924009E070000000000000000000000000000FE
:102934000000000000000000000000007E7E7E7E9B
:1029440018181818300C300C60066006C003C00359
:102954008001800100000000000000000000000071
:1029640000000000000000000000000000003E7CA9
:102974003E7C0C300C30981998199819B00DF00F52
:10298400700E6006600600000000000000000000F9
:102994000000000000000000000000000000000033
:1029A4007C3E7C3E300C6006C00380018001C00385
:1029B4006006300C7C3E7C3E0000000000000000FD
:1029C4000000000000000000000000000000000003
:1029D40000007E7E7E7E18181818300C300C6006BD
:1029E40060064003C0038001800100030003000669
:1029F400807F807F000000000000000000000000D5
:102A040000000000F81FF81F30186018C000800193
:102A1400800100031806180CF81FF81F00000000BE
:102A240000000000000000000000000000000000A2
:102A34006000E001800100030003000300030003C1
:102A4400000E001C000E000300030003000300033B
:102A540000038001E00160000003000300030003A1
:102A6400000300030003000300030003000300034A
:102A7400000300030003000300030003000300033A
:102A84000003000300030003000300000000000033
:102A940000000000000C000F000380018001800191
:102AA40080018001E0007000E0008001800180016D
:102AB4008001800180010003000F000C0000000071
:102AC40000000000D807F00D000000000000000026
:102AD40000000000000000000000000000000000F2
:102AE40000000000000000000000000000000000E2
:102AF40000000000000000000000000000000000D2
:102B0400000000000000000000000000000080033E
:102B1400C007C007800300000000000000000000A0
:102B240000000000000000000000F0FFF0FF30C6CD
:102B340030C600060006F807FC070E060606060661
:102B44000606CE06FC3E783E0000000000000000B1
:102B540000000000E000C00180030000FC3FFC3FD7
:102B64000C0C0C0C0C0C000C000C000C000C000CDD
:102B7400000C000C000C803F803F000000000000AF
:102B84000000000000000000000000000000000041
:102B94000000000000000000000000000000000031
:102BA400000000000000800380038000800000011A
:102BB400000200000000000000000000000080038C
:102BC4000007000E0000F8FFF8FF1830183000303E
:102BD4000030003000300030003000FC00FC000009
:102BE40000000000000000000000000000000000E1
:102BF40000000000000000000000000000000000D1
:102C040000000000000000000000701C701C100494
:102C14001004200840100000000000000000000024
:102C240000000000000000000000000000000000A0
:102C34000000000000000000000000006066606604
:102C440060660000000000000000000000000000BA
:102C5400000000000000800700030003F03FF03F85
:102C64000003000380078007000300030003000340
:102C7400000300030000000000000000000000004A
:102C84000000000000000000800700030003F03F84
:102C9400F03F000300038007800700030003F03FB8
:102CA400F03F000300038007000000000000000064
:102CB4000000000000000000000000000000000010
:102CC4000000000000000000000000000000000000
:102CD40000000000000000000000000000000000F0
:102CE400000000000000000000000000807800CD1B
:102CF4000085008600CA007C000400080008BC07A8
:102D0400E60C42184218E62CBC2700000000000024
:102D14000000000000000000000000000000E0FFD0
:102D2400E0FF803180318031F831FC318E318631E1
:102D34008631863186718E61FCE7F8C70000000099
:102D4400000000000000000000000000000000007F
:102D540000000000000000000000800080018001ED
:102D640000030003000380018001800000000000D4
:102D7400000000000000000000000000000000004F
:102D84000000E0F3E0F38061806180618061F87F9E
:102D9400FC7F8E618661866186618E61FCF3F8F347
:102DA400000000000000000000000000C0018003DB
:102DB40000070000F8FCF8FC6030C03080310033BC
:102DC4000037803FC039E0306030703030303CFC38
:102DD4003CFC0000000000000000000000000000B7
:102DE400000000000000F0FFF0FF30C630C600060F
:102DF4000006F807FC070E06060606060606060683
:102E04008E1F8E1F00000000000000000000000064
:102E14000000000000000000FCFCFCFC30303030FE
:102E2400303030303030303030303030303030309E
:102E34003030FCFFFCFF0003000300000000000032
:102E440000000000000000000018C07FC07F0018D0
:102E5400E019F01F381E1818181818181818181820
:102E640018181818187E187E18001800B003E0010E
:102E7400000000000000000000000000C000C000CE
:102E8400C001C0018003800380070000000000002F
:102E9400000000000000000000000000000000002E
:102EA4000000000000000000000000000000C0035B
:102EB40080038003000700070006000600000000EE
:102EC40000000000000000000000000000000000FE
:102ED40000000000000000000000000000000000EE
:102EE4000C060C061C0E1C0E381C381C783C00000A
:102EF40000000000000000000000000000000000CE
:102F040000000000000000000000000000000000BD
:102F140000003C0F380E380E701C701C60186018CE
:102F2400000000000000000000000000000000009D
:102F3400000000000000000000000000000000008D
:102F4400000000000000000000000000000000007D
:102F540000008003C007C0078003000000000000D9
:102F6400000000000000000000000000000000005D
:102F7400000000000000000000000000000000004D
:102F84000000E00FE00F000000000000000000005F
:102F9400000000000000000000000000000000002D
:102FA400000000000000000000000000000000001D
:102FB40000000000FC7FFC7F000000000000000017
:102FC40000000000000000000000000000000000FD
:102FD40000000000000000000000000000000000ED
:102FE40000000000000000000000000000000000DD
:102FF40000000000000000000000000000000000CD
:103004000000000000000000000002FD86FDCE313B
:10301400FE31B63186318631863100000000000071
:10302400000000000000000000000000000000009C
:10303400000000000000000000000000000000008C
:1030440000000000F07FF07FC018C018C018FC1802
:10305400FE18C618C238C630FEF3FCE300000000B8
:10306400000000000000000000000000000000005C
:103074000000000000000000000000020003000344
:1030840080018001800100030003000200000000B1
:10309400000000000000000000000000000000002C
:1030A4000000000000000000E0F1E0F1C060C0603A
:1030B400C060FC7FFE7FC660C260C660FEF1FCF1AA
:1030C40000000000000000000000000000000000FC
:1030D4000000E000C00180030000FC3CFC3C600CEC
:1030E400C00C800D000F800FE00C700C180C7E3C9F
:1030F4007E3C000000000000000000000000000012
:10310400000000000018C07FC07F0018E019F01F05
:10311400381E181818181818181818181818181805
:103124007E7E7E7E000000000000000000000000A3
:1031340000000000000000000000000000007E7E8F
:103144007E7E18181818181818181818181818182F
:103154001818FE7FFE7F800180010000000000003F
:10316400000000000000000000000000000000005B
:10317400000000000000000000000000000000004B
:10318400000000000000000000000000000000003B
:10319400000000000000C00C80070003FCFCFCFCE5
:1031A4003030303030186018600C600CC006C00637
:1031B400800380038033003F000E00000000000005
:1031C4000000000000000000000000006006C003D2
:1031D400800100007E7E7E7E18181818300C300C9A
:1031E400600660064003C003800180010003000301
:1031F4000006807F807F00000000000000000000C7
:10320400FC07FC0760006000600060006000600074
:103214006000606060606060C070C03F000F0000CC
:10322400000000000000000000000000000000009A
:1032340000000820D017E00E301830181010301895
:103244003018E00ED0170820000000000000000035
:10325400000000000000000000000000000000006A
:103264000C000C00FC3FFC3F000C000C000C000C9C
:10327400000C000C000C000C000C000C000C803F37
:10328400803F00000000000000000000000000007B
:103294000003000300030003000300030003000312
:1032A400000300000000000000000003000300030E
:1032B40000030003000300030003000300000000F8
:1032C4000000000000000000F007F00F300C301C7C
:1032D400003E0037C033E039701C380F9807D8011E
:1032E400F80070186018E01FC01F00000000000004
:1032F4000000701C701C00000000F87FF87F181894
:103304001818D818C018C01FC01FC018C018181823
:1033140018181818F87FF87F00000000000000005B
:10332400000000000000000000000000C007701C46
:1033340018300C60C447C6CCC28C028C028C66CC9C
:10334400C4470C601830701CC00700000000000067
:103354000000000000000000000000000000D8078A
:10336400F81F783C183018700060807F807F006000
:103374000060007008303C3CF81FE00700000000CB
:103384000000000000000000000000000000000039
:10339400000000000000000000002002600660063B
:1033A400C00CC00CC00C60066006200200000000C7
:1033B4000000000000000000000000000000000009
:1033C4000000000000000000000000000000F87F82
:1033D400F87F180018001800180000000000000012
:1033E40000000000000000000000000000000000D9
:1033F40000000000000000000000000000000000C9
:1034040000000000F83FF83F00000000000000004A
:1034140000000000000000000000000000000000A8
:10342400000000000000C007701C18300C60C44F7E
:1034340066C66286C287C28666C6644F0C60183050
:10344400701CC00700000000000000000000000025
:103454006018601800000000F03FF03F0003000314
:103464000003000300030003000300030003000340
:103474000003F03FF03F00000000000000000000E7
:10348400000000000000000000008007C00F60186A
:10349400601860186018C00F80070000000000006A
:1034A4000000000000000000000000000000000018
:1034B4000000000000000000000000000000000305
:1034C400000300030003F87FF87F000300030003F8
:1034D400000300000000F87FF87F000000000000F7
:1034E4000000000000000000000000000000F03FA9
:1034F400F03F000300030003000300030003000384
:103504000003000300030003F03FF03F000000004D
:1035140000000000000000000000000080018001A5
:10352400800100000000801F801F80018001800155
:1035340080018001800180018001FC3FFC3F00008C
:103544000000000000000000000000000000000077
:103554000000000018001800F87FF87F0018001819
:10356400001800180018001800180018007E007ECB
:103574000000000000000000000000000000000047
:1035840000000000000000000000F878F878181827
:10359400181818181818181818181818781CFE1F56
:1035A4009E1F00180018007000600000000000005A
:1035B400000000000000F81F783E607E607E607EA0
:1035C400607E607E603E601E600660066006600687
:1035D40060066006781E781E0000000000000000EF
:1035E40000000000000000000000000000000000D7
:1035F40000008001C003C00380010000000000003F
:1036040000000000000000000000000000000000B6
:103614000000000000000000300C300C000000002E
:10362400C003F00F381C18180C30FC3FFC3F00306E
:103634000018181CFC0FF00300000000000000003C
:10364400000000000000000000000000FEF1FEF990
:103654006638663C7E3C7E3660366033E031E0316D
:10366400E030E030603060FE60FE000000000000EA
:103674000000000000000000000000000000000046
:1036840000000000CC03FC0F3C1C0C180C30803FE5
:10369400803F003008181C1CF80FE00300000000F5
:1036A4000000000000000000000000000000000016
:1036B400000000000000000000008008C00CC00CE6
:1036C400600660066006C00CC00C800800000000A4
:1036D4000000000000000000000000000000C00026
:1036E400C000C00000000000E01FE01F6000600098
:1036F40060006000600060006000600060006000C6
:1037040060006000C000C01F001F00000000000037
:1037140000000000B007F01F70183030003000388F
:10372400E01FF00F38001800183018303038F03F20
:10373400C03700000000000000000000000000008E
:10374400000000000000000000000000D807F80F8F
:10375400381C18180018F00FF8070C000C181C1C63
:10376400F81FF01B00000000000000000000000033
:1037740000000000300C300C300C00000000801FF2
:10378400801F80018001800180018001800180010F
:103794008001FC3FFC3F000000000000000000002E
:1037A40000000000000000000000001F001F800750
:1037B4008007C00CC00CC00C6018E01FE01F60182C
:1037C40030303030FCFCFCFC000000000000000045
:1037D400000000000000000000000000F07FF07F07
:1037E4003018001800180018E01FF01F38181818B7
:1037F400181818183818F07FE07F00000000000047
:103804000000000000000000000000000000C07F75
:10381400E07F7018301830187018E01FF01F381847
:103824001818181818183818F07FE07F00000000E6
:103834000000000000000000000000000000000084
:10384400FC3FFC3F0C0C0C0C0C0C000C000C000C92
:10385400000C000C000C000C000C803F803F0000AA
:103864000000000000000000000000000000000054
:103874000000FC3FFC3F300C300C300C300C300CA2
:10388400300C301C3018301830383070FCFFFCFF1E
:103894000CC00CC00000000000000000000000008C
:1038A40000000000F87FF87F18181818D818C018FE
:1038B400C01FC01FC018C018181818181818F87F8F
:1038C400F87F00000000000000000000000000007D
:1038D4000000000000008E719E799819B00DB00DA3
:1038E400E007C003E007F00FB81D98199C398C312C
:1038F4008E718E71000000000000000000000000C6
:103904000000000000000000E01FF03F3870187055
:1039140018003000E001F001380018001800187099
:103924003870F03FE01F00000000000000000000BD
:10393400000000000000000000003CFE7CFE70302F
:10394400F030F030B031B031303330363036303CD6
:10395400303C3038FCF9FCF10000000000000000AD
:1039640000000000300CF00FE00700003CFE7CFE7D
:103974007030F030F030B031B03130333036303672
:10398400303C303C3038FCF9FCF100000000000011
:103994000000000000000000000000000000F8FC2F
:1039A400F8FC6030C030803100330037803FC039CC
:1039B400E0306030703030303CFC3CFC00000000F3
:1039C40000000000000000000000000000000000F3
:1039D400FC3FFC3F300C300C300C300C300C300C05
:1039E400300C300C300C301C3018FC78FC700000AB
:1039F40000000000000000000000000000000000C3
:103A040000003CF03CF0787878787878D86CD86C02
:103A1400D86C986798671863186318607CF87CF80A
:103A24000000000000000000000000000000000092
:103A340000000000FCFCFCFC303030303030303012
:103A4400F03FF03F30303030303030303030FCFC3C
:103A5400FCFC00000000000000000000000000006A
:103A6400000000000000C00FF03F787818601CE0F0
:103A74000CC00CC00CC00CC00CC01CE018607878E2
:103A8400F03FC00F00000000000000000000000034
:103A94000000000000000000FCFFFCFF303030306C
:103AA4003030303030303030303030303030303012
:103AB4003030FCFCFCFC00000000000000000000B2
:103AC40000000000000000000000C07FF07F3018FC
:103AD4001818181818183018F01FC01F00180018EC
:103AE40000180018807F807F0000000000000000A4
:103AF400000000000000000000000000D807F81FCC
:103B0400783C18301870006000600060006000604D
:103B1400007008303C3CF81FE00700000000000083
:103B24000000000000000000000000000000F87F1A
:103B3400F87F186318631863186300030003000315
:103B44000003000300030003E01FE01F0000000067
:103B54000000000000000000000000000000000061
:103B6400FCFCFCFC3030303030186018600C600C09
:103B7400C006C006800380038033003F000E0000AF
:103B84000000000000000000000000000000000031
:103B94000000E00FE00F8003E00FF83FBC7B8C6374
:103BA4008EE38C63BC7BF83FE00F8003E00FE00FF3
:103BB4000000000000000000000000000000000001
:103BC40000000000FCFCFCFC30306018C00CC00C91
:103BD400800700038007C00CC00C60183030FCFC68
:103BE400FCFC0000000000000000000000000000D9
:103BF400000000000000FCFCFCFC303030303030B1
:103C040030303030303030303030303030303030B0
:103C1400FCFFFCFF0C000C00000000000000000092
:103C24000000000000000000FCFCFCFC30303030E0
:103C34003030303030303030F03FF01F3000300062
:103C44003000FC00FC000000000000000000000048
:103C5400000000000000000000007EF87EF81863F9
:103C64001863186318631863186318631863186378
:103C740018631863FEFFFEFF000000000000000050
:103C84000000000000000000000000007CF87CF848
:103C94001863186318631863186318631863186348
:103CA400186318631863FEFFFEFF06000600000099
:103CB400000000000000000000000000000000FF01
:103CC40000FF00CC00CC000C000CE00FF80F180C27
:103CD4000C0C0C0C0C0C180CF83FE03F000000001E
:103CE40000000000000000000000000000000000D0
:103CF4003EFE3EFE0C300C300C300C300C3FCC3F02
:103D0400CC306C306C306C30CC30DEFF1EFF0000E9
:103D1400000000000000000000000000000000009F
:103D24000000807F807F0018001800180018C01F52
:103D3400F01F30181818181818183018F07FC07FA2
:103D4400000000000000000000000000000000006F
:103D540000000000C037F03F783C18301C300C00E5
:103D6400FC01FC010C000C001C0018207878F03FCA
:103D7400C00F000000000000000000000000000070
:103D8400000000000000E0F8F8FBBC670C660E6E53
:103D9400066C067C067C066C066C0E6E0C66BC67B4
:103DA400F8FBE0F800000000000000000000000044
:103DB4000000000000000000FC07FC1F3018303039
:103DC40030303030301CF01FF007300E301C30180B
:103DD4003038FCF0FCF0000000000000000000009F
:103DE40000000000000000000000000000000000CF
:103DF400E007F01F38081800D807F81F38181830E3
:103E040018307818FE1F9E07000000000000000014
:103E140000000000000000001800F001E003C007EB
:103E2400000CC00BF01F381C18180C300C300C3070
:103E34000C301818381CF00FC003000000000000FC
:103E4400000000000000000000000000000000006E
:103E540000000000F0FFF8FF0C300C301830F03F89
:103E6400F03F18300C301C30F8FFF0FF0000000069
:103E7400000000000000000000000000000000003E
:103E8400000000000000F8FFF8FF18301830003080
:103E94000030003000300030003000FC00FC000036
:103EA400000000000000000000000000000000000E
:103EB4000000000000000000FC3FFC3F300C300C10
:103EC400300C300C300C300C301C3018FC7FFC7F74
:103ED4000C600C6000000000000000000000000006
:103EE40000000000000000000000C003F00F381CB8
:103EF40018180C30FC3FFC3F00300018181CFC0F55
:103F0400F0030000000000000000000000000000BA
:103F14000000000000000000000000009E799E796F
:103F2400B00DE007C0038001C003F00FB81D8C3151
:103F34008E718E710000000000000000000000007F
:103F44000000000000000000000000000000F00F6E
:103F5400F81F0C300C301800F003F00318000C307C
:103F64001C30F81FF00F00000000000000000000EB
:103F7400000000000000000000000000000000003D
:103F84007E7E7E7E181838187818F818D819981B71
:103F9400181F181E7E7C7E780000000000000000C0
:103FA400000000000000000000006006E00780013F
:103FB40000007E7E7E7E181838187818F818D819F4
:103FC400981B181F181E7E7C7E78000000000000DD
:103FD40000000000000000000000000000000000DD
:103FE40000000000FC3CFC3C600CC00C800D000F89
:103FF400800FE00C700C180C7E3C7E3C000000002E
:1040040000000000000000000000000000000000AC
:10401400000000000000FC3FFC3F300C300C300C72
:10402400300C300C300C301C3018FC78FC70000064
:10403400000000000000000000000000000000007C
:1040440000000000000000001E781E783C3C2C3468
:104054006C364C32CC338C318C310C301E781E785B
:10406400000000000000000000000000000000004C
:10407400000000000000000000007E7E7E7E181814
:1040840018181818F81FF81F1818181818187E7E12
:104094007E7E000000000000000000000000000020
:1040A400000000000000000000000000C003F00F4A
:1040B400381C18180C300C300C300C301818381C04
:1040C400F00FC0030000000000000000000000002A
:1040D4000000000000000000000000000000FE7F5F
:1040E400FE7F1818181818181818181818181818FF
:1040F40018187E7E7E7E0000000000000000000094
:1041040000000000000000000000000000000000AB
:10411400C07BF07F381C18180C180C180C180C18DD
:104124001818381CF01FC01B001800180018807FD6
:10413400807F00000000000000000000000000007C
:104144000000CC03FC0F3C1C0C180C300030003079
:10415400003008181C1CF80FE003000000000000E9
:10416400000000000000000000000000000000004B
:1041740000000000FC3FFC3F8C318C318001800149
:104184008001800180018001E007E0070000000059
:10419400000000000000000000000000000000001B
:1041A4000000000000007E7E7E7E18181818300C77
:1041B400300C600660064003C003800180010003E8
:1041C40000030006807F807F0000000000000000E4
:1041D400C00FC00F00030003C00FF03F3873186313
:1041E4000CC30CC30CC30CC318633873F03FC00F6B
:1041F40000030003C00FC00F000000000000000017
:10420400000000000000000000007C3E7C3E300CFA
:104214006006C00380018001C0036006300C7C3E50
:104224007C3E0000000000000000000000000000D0
:104234000000000000000000000000007E7E7E7E82
:1042440018181818181818181818181818181818EA
:10425400FE7FFE7F06000600000000000000000054
:1042640000000000000000000000000000007E7E4E
:104274007E7E1818181818181818F81FF80F180048
:1042840018007E007E000000000000000000000016
:10429400000000000000000000000000000000001A
:1042A4009E799E798C318C318C318C318C318C316E
:1042B4008C318C31FE7FFE7F000000000000000086
:1042C40000000000000000000000000000000000EA
:1042D40000009E799E798C318C318C318C318C31FB
:1042E4008C318C318C31FE7FFE7F0600060000008D
:1042F40000000000000000000000000000000000BA
:104304000000000000FC00FC00CC00CCF00FF80F13
:104314003C0C0C0C0C0C3C0CF80FF00F00000000D3
:104324000000000000000000000000000000000089
:104334000000000000003EFC3EFC0C300C308C3FC2
:10434400CC3FEC316C306C30EC31DEFF9EFF000072
:104354000000000000000000000000000000000059
:104364000000000000000000007E007E001800181D
:10437400E01FF01F7818181818187818F07FE07FDD
:104384000000000000000000000000000000000029
:1043940000000000000000000000C033F03F383C83
:1043A40018300C30FC01FC010C0018103838F01FD8
:1043B400C007000000000000000000000000000032
:1043C400000000000000000000000000E0F8F8FB1E
:1043D4001C670C66066C067C067C066C0C661C6707
:1043E400F8FBE0F8000000000000000000000000FE
:1043F4000000000000000000000000000000FE03B8
:10440400FE0F181C18181818181CF80FF8031803B6
:1044140018277E3E7E1C0000000000000000000003
:1044240064D4B0303132333435363738396162636D
:104434006465666768696A6B6C6D6E6F70717273C0
:084444007475767778797A002F
:04444C00BD010008A6
:0444500099010008C6
:104454000024F4000F1900006418000820FF000075
:104464000001000205002800003A015500B2050CC5
:104474000C0033330036010000B7013500BB0119CD
:1044840000C0012C00C20201FF00C3011200C401DC
:104494002000C6010F00D002A4A100E00ED0040D3C
:1044A40011132B3F544C180D0B1F2300E10ED004A5
:1044B4000C11132C3F44512F1F1F202300210000F7
:1044C4001100020500130000290002780300000017
:1044D400002A0400000000002B0400000000002C4F
:1044E40000030000001000020A0300000011000293
:0444F4007803000049
:04000005080007A543
:00000001FF
